:100000000C9434000C9449000C9449000C94490061
:100010000C9449000C9449000C9449000C9449003C
:100020000C9449000C9449000C9449000C9449002C
:100030000C9449000C9449000C9449000C9449001C
:100040000C9449000C9449000C9449000C9449000C
:100050000C9449000C9449000C9449000C944900FC
:100060000C9449000C94490011241FBECFEFD8E036
:10007000DEBFCDBF11E0A0E0B1E0EEE0F6E002C0EF
:1000800005900D92A630B107D9F70E944B000C9451
:1000900005030C94000060E875E280E090E00E94A7
:1000A000630080E091E00E94990083E091E00E946B
:1000B00099002FEB87E299E0215080409040E1F7D2
:1000C00000C00000EECFE0ECF0E020812260208351
:1000D000E1ECF0E0208128692083E2ECF0E020816F
:1000E000266020830E94BD0120E030E040E051E422
:1000F0000E944B029B01AC0160E074E284E799E44A
:100100000E94150120E030E040E85FE30E94A80073
:100110000E94B8020E9487016093C4007093C500DA
:1001200008958093C600E0ECF0E0808185FFFDCF6C
:100130000895CF93DF93EC018881882331F02196D5
:100140000E94910089918111FBCFDF91CF91089599
:100150005058BB27AA270E94C0000C9411020E948D
:10016000030238F00E940A0220F039F49F3F19F48C
:1001700026F40C9400020EF4E095E7FB0C94FA01CF
:10018000E92F0E94220258F3BA1762077307840707
:10019000950720F079F4A6F50C9444020EF4E0954E
:1001A0000B2EBA2FA02D0B01B90190010C01CA0131
:1001B000A0011124FF27591B99F0593F50F4503EDC
:1001C00068F11A16F040A22F232F342F4427585FCE
:1001D000F3CF469537952795A795F0405395C9F7E6
:1001E0007EF41F16BA0B620B730B840BBAF091509E
:1001F000A1F0FF0FBB1F661F771F881FC2F70EC03D
:10020000BA0F621F731F841F48F48795779567950F
:10021000B795F7959E3F08F0B0CF9395880F08F0FB
:100220009927EE0F9795879508950E9429010C94C0
:1002300011020E940A0258F00E94030240F029F4C1
:100240005F3F29F00C94FA0151110C9445020C9473
:1002500000020E94220268F39923B1F3552391F31F
:10026000951B550BBB27AA2762177307840738F025
:100270009F5F5F4F220F331F441FAA1FA9F335D082
:100280000E2E3AF0E0E832D091505040E695001C36
:10029000CAF72BD0FE2F29D0660F771F881FBB1FF0
:1002A000261737074807AB07B0E809F0BB0B802DCE
:1002B000BF01FF2793585F4F3AF09E3F510578F0FA
:1002C0000C94FA010C9445025F3FE4F3983ED4F39A
:1002D000869577956795B795F7959F5FC9F7880FCE
:1002E000911D9695879597F90895E1E0660F771F20
:1002F000881FBB1F621773078407BA0720F0621BB1
:10030000730B840BBA0BEE1F88F7E09508950E94DB
:100310008E016894B1110C94450208950E942A023E
:1003200088F09F5798F0B92F9927B751B0F0E1F0B6
:10033000660F771F881F991F1AF0BA95C9F714C066
:10034000B13091F00E944402B1E008950C9444024F
:10035000672F782F8827B85F39F0B93FCCF386959F
:1003600077956795B395D9F73EF4909580957095FC
:1003700061957F4F8F4F9F4F0895E89409C097FB79
:100380003EF490958095709561957F4F8F4F9F4F6C
:100390009923A9F0F92F96E9BB279395F6958795B0
:1003A00077956795B795F111F8CFFAF4BB0F11F473
:1003B00060FF1BC06F5F7F4F8F4F9F4F16C088231A
:1003C00011F096E911C0772321F09EE8872F762F50
:1003D00005C0662371F096E8862F70E060E02AF091
:1003E0009A95660F771F881FDAF7880F969587957D
:1003F00097F9089597F99F6780E870E060E00895A5
:100400009FEF80EC089500240A941616170618062C
:100410000906089500240A94121613061406050608
:100420000895092E0394000C11F4882352F0BB0F99
:1004300040F4BF2B11F460FF04C06F5F7F4F8F4FFC
:100440009F4F089557FD9058440F551F59F05F3F37
:1004500071F04795880F97FB991F61F09F3F79F0E6
:1004600087950895121613061406551FF2CF469568
:10047000F1DF08C0161617061806991FF1CF8695EA
:100480007105610508940895E894BB2766277727CE
:10049000CB0197F908950E945E020C9411020E940C
:1004A000030238F00E940A0220F0952311F00C9408
:1004B000FA010C94000211240C9445020E942202BD
:1004C00070F3959FC1F3950F50E0551F629FF001A7
:1004D000729FBB27F00DB11D639FAA27F00DB11DC0
:1004E000AA1F649F6627B00DA11D661F829F222749
:1004F000B00DA11D621F739FB00DA11D621F839FD0
:10050000A00D611D221F749F3327A00D611D231FA5
:10051000849F600D211D822F762F6A2F11249F57F3
:1005200050409AF0F1F088234AF0EE0FFF1FBB1FF6
:10053000661F771F881F91505040A9F79E3F5105B5
:1005400080F00C94FA010C9445025F3FE4F3983E6E
:10055000D4F3869577956795B795F795E7959F5F5F
:10056000C1F7FE2B880F911D9695879597F90895F1
:100570000E942A02E8F09E37E8F09639B8F49E38D7
:1005800048F4672F782F8827985FF9CF869577955D
:10059000679593959539D0F3B62FB1706B0F711D98
:1005A000811D20F487957795679593950C94DC02CF
:1005B0000C94F7020C944502882371F4772321F000
:1005C0009850872B762F07C0662311F499270DC00A
:1005D0009051862B70E060E02AF09A95660F771FA5
:1005E000881FDAF7880F9695879597F908959F3FAA
:1005F00031F0915020F4879577956795B795880FDE
:0E060000911D9695879597F90895F894FFCF70
:06060E004154000D0A003A
:00000001FF
