S01100004D61696E5F556E69742E737265638F
S11300000C94B5000C94D2000C94D2000C94D20041
S11300100C94D2000C94D2000C94D2000C94D20014
S11300200C94D2000C94D2000C94D2000C94D20004
S11300300C94D2000C94D2000C94D2000C94D200F4
S11300400C94D2000C94D2000C9404050C94D200AD
S11300500C94D2000C94D2000C94D2000C94D200D4
S11300600C94D2000C94D2006E616E00696E66002E
S113007000407A10F35A00A0724E18090010A5D45B
S1130080E80000E87648170000E40B54020000CAB8
S11300909A3B000000E1F5050000809698000000FE
S11300A040420F000000A08601000000102700005D
S11300B00000E803000000006400000000000A00E3
S11300C0000000000100000000002C76D888DC67E6
S11300D04F0823DFC1DFAE59E1B1B796E5E3E4533E
S11300E0C63AE651997696E8E6C28426EB898C9B5B
S11300F062ED407C6FFCEFBC9C9F40F2BAA56FA5FB
S1130100F490055A2AF75C936B6CF9676DC11BFC7C
S1130110E0E40D47FEF520E6B500D0ED902E030097
S1130120943577050080841E080000204E0A0000E4
S113013000C80C333333330F986E12831141EF8DA3
S11301402114893BE65516CFFEE6DB18D1844B38E3
S11301501BF77C1D901DA4BBE424203284725E2214
S11301608100C9F124ECA1E53D2711241FBECFEF86
S1130170D8E0DEBFCDBF13E0A0E0B1E0E6E7FBE1ED
S113018002C005900D92A830B107D9F726E0A8E087
S1130190B3E001C01D92A831B207E1F70E948105C6
S11301A00C94B90D0C940000ECE7F0E080818064BD
S11301B08083EAE7F0E08081876880830895579A16
S11301C008958BB180588BB92FE38DE093E02150D3
S11301D080409040E1F700C000008BB180588BB99B
S11301E0089583E0EAE7F4E0DF01982F1D929A95E1
S11301F0E9F7E0E1F3E0DF011D928A95E9F788EC85
S1130200ECE1F3E0DF01982F1D929A95E9F7E6E817
S1130210F4E0DF011D928A95E9F7089588E491E0FE
S11302209F938F9389E591E09F938F938CE193E063
S11302309F938F930E94390D8CE193E00E9469048F
S113024086E894E00E94E5042FEB87E299E02150D0
S113025080409040E1F700C000000F900F900F9095
S11302600F900F900F9008952F923F924F925F92AC
S11302706F927F928F929F92AF92BF92CF92DF92B2
S1130280EF92FF920F931F93CF93DF93CDB7DEB717
S11302902C970FB6F894DEBF0FBECDBF9E838D831F
S11302A02DB73EB73C872B87FC0101900020E9F76E
S11302B031975F01A81AB90ABB24A501415051091D
S11302C058874F838DB79EB78A199B090FB6F89448
S11302D09EBF0FBE8DBFADB7BEB711964D018091C5
S11302E0080390910903A0910A03B0910B03803F86
S11302F0984DAF4FBF4F61F4109208031092090359
S113030010920A0310920B0382E0809317069BC09D
S113031019821A821B821C822F803884280C391C73
S113032094012F5F3F4F3A872987809117068430C5
S113033011F410921706EFE4F5E001900020E9F7BC
S11303403197CF018F5495406C01E12CF12CC114ED
S1130350D104E104F10409F451C089EF90E001975C
S1130360F1F700C0000029813A814B815C812F5F45
S11303703F4F4F4F5F4F29833A834B835C83EFE4B6
S1130380F5E001900020E9F73197CF018F549540B3
S1130390A0E0B0E0C816D906EA06FB0679F50FE43A
S11303A015E0412C512C32014F81588569857A859D
S11303B0C4010E94B80CD8018D918D01F101808394
S11303C0A5016D817E81C4010E94CA0C892B61F450
S11303D0109208031092090310920A0310920B035F
S11303E081E0809317062FC0FFEF4F1A5F0A6F0A50
S11303F07F0A4C145D046E047F04B1F689EF90E02B
S11304000197F1F700C0000029813A814B815C819A
S11304102F5F3F4F4F4F5F4F29833A834B835C835A
S11304208091080390910903A0910A03B0910B03F2
S1130430805F984DAF4FBF4F281739074A075B07B6
S113044008F473CF59CF4B855C850FB6F8945EBF23
S11304500FBE4DBF2C960FB6F894DEBF0FBECDBFB6
S1130460DF91CF911F910F91FF90EF90DF90CF908C
S1130470BF90AF909F908F907F906F905F904F90C0
S11304803F902F90089588ECEFE4F5E0DF011D9292
S11304908A95E9F710920F0310920E0310920D0340
S11304A010920C030895CF93DF93EC0184E08093C2
S11304B01706CE010E943401809117068823C9F3E0
S11304C0DF91CF9108950E94530281E09091170625
S11304D0923009F480E008950F931F93CF93DF9334
S11304E08C01EB010E944302C8010E9472058DEE4B
S11304F091E00E947205CE010E946302DF91CF91C8
S11305001F910F9108950F931F93CF93DF93CDB74E
S1130510DEB764970FB6F894DEBF0FBECDBF8E0171
S11305200F5F1F4F94E1F80111929A95E9F71F921A
S11305308F938CE891E09F938F931F930F930E9466
S1130540390D1C8A65E871E0C8010E946C020F90A5
S11305500F900F900F900F900F9064960FB6F89431
S1130560DEBF0FBECDBFDF91CF911F910F910895D4
S11305700F931F93CF93DF93CDB7DEB764970FB676
S1130580F894DEBF0FBECDBF8E010F5F1F4F94E105
S1130590F80111929A95E9F71F928F938AE991E0F5
S11305A09F938F931F930F930E94390D1C8A65E8C4
S11305B071E0C8010E946C020F900F900F900F9091
S11305C00F900F9064960FB6F894DEBF0FBECDBFA8
S11305D0DF91CF911F910F910895CF93C5E065E806
S11305E071E087EA91E00E946C0281110AC065E81B
S11305F071E08CEA91E00E946C02811102C0C1504A
S113060071F7CF9108950F931F93CF93DF93CDB7D5
S1130610DEB764970FB6F894DEBF0FBECDBF8E0170
S11306200F5F1F4F94E1F80111929A95E9F71F9219
S11306308F938DEB91E09F938F931F930F930E9461
S1130640390D1C8A65E871E0C8010E946C020F90A4
S11306500F900F900F900F900F9064960FB6F89430
S1130660DEBF0FBECDBFDF91CF911F910F910895D3
S11306700F931F93CF93DF93CDB7DEB7EC970FB6ED
S1130680F894DEBF0FBECDBF8E010F5F1F4F2CE36A
S1130690F80111922A95E9F77F936F939F938F93B3
S11306A08AEC91E09F938F931F930F930E94390DCF
S11306B01CAE6DED71E0C8010E946C020FB6F89497
S11306C0DEBF0FBECDBF811122C060EF71E08FE4A9
S11306D095E00E94E30C892BE1F469EF71E08FE46B
S11306E095E00E94E30C892BB1F462E072E08FE4A0
S11306F095E00E94E30C892B81F46BE072E08FE4B7
S113070095E00E94E30C892B51F485E009C080E058
S113071007C081E005C082E003C083E001C084E03B
S1130720EC960FB6F894DEBF0FBECDBFDF91CF912C
S11307301F910F91089565E871E084E192E00E94B1
S11307406C0261E272E08FE495E00E94E30C892B75
S1130750D1F46AE272E08FE495E00E94E30C892B05
S1130760A1F463E372E08FE495E00E94E30C892B2B
S113077071F46CE372E08FE495E00E94E30C892B42
S113078041F484E0089580E0089581E0089582E0D2
S1130790089583E00895DF92EF92FF920F931F93E1
S11307A0CF93DF93CDB7DEB7EC970FB6F894DEBFE7
S11307B00FBECDBFD82E162F072FF42EE52EFE0127
S11307C031968CE3DF011D928A95E9F765E472E0C6
S11307D08EE492E00E946C028823A1F0EF92FF92D3
S11307E00F931F9389E592E09F938F93CE01019617
S11307F09F938F930E94390D0FB6F894DEBF0FBEFE
S1130800CDBF15C0EF92FF920F931F931F92DF92FB
S113081083E792E09F938F93CE0101969F938F93EA
S11308200E94390D0FB6F894DEBF0FBECDBF62E94A
S113083072E0CE0101960E946C02811106C0809183
S11308401706823021F085E003C081E001C082E018
S1130850EC960FB6F894DEBF0FBECDBFDF91CF91FB
S11308601F910F91FF90EF90DF90089583E00E9415
S1130870030380E00E94B80280E00E9483020E9489
S11308809B03833031F46CE972E088EA92E00E94C1
S1130890380349EB52E06CEB72E080E00E94CB033A
S11308A008950E949B0380934E05833031F46CE9D4
S11308B072E088EA92E00E94380380914E0582300B
S11308C039F449EB52E06CEB72E080E00E94CB0318
S11308D00895EF92FF920F931F93CF93DF93CDB7B9
S11308E0DEB764970FB6F894DEBF0FBECDBF8C01A0
S11308F0CE0101967C0184E1F70111928A95E9F712
S1130900F80101900020E9F7CF01801B910B0196BB
S11309109F938F938FEC92E09F938F93FF92EF922C
S11309200E94390D1C8A6DED72E0C7010E946C02B1
S113093065EE72E0C8010E946C020F900F900F9058
S11309400F900F900F90811106C08091170682308E
S113095021F085E003C081E001C082E064960FB617
S1130960F894DEBF0FBECDBFDF91CF911F910F91E1
S1130970FF90EF90089580910E0390910F032091C2
S11309800C0330910D03821B930B089520910C03EB
S113099030910D0380910E0390910F0328173907AE
S11309A084F480910C0390910D039C012F5F3F4FC1
S11309B030930D0320930C03FC01E15BFA4F80811B
S11309C008950E94430280E008950F931F93CF93EC
S11309D0DF93E7EAF1E63197F1F700C00000C82F92
S11309E0D92F00E010E005C00F5F1F4F0E94C6041E
S11309F089930E94BB0418161906B4F3C801DF9149
S1130A00CF911F910F9108951F920F920FB60F92DD
S1130A1011242F938F939F93EF93FF932FB7F89401
S1130A20E0910E03F0910F038091C600E15BFA4F51
S1130A30808380910E0390910F03019690930F038E
S1130A4080930E0380910E0390910F03883C9105CF
S1130A5041F410920F0310920E0310920D031092A2
S1130A600C032FBFFF91EF919F918F912F910F90C6
S1130A700FBE0F901F901895E0ECF0E020812260EB
S1130A802083E1ECF0E0208128692083E2ECF0E0AF
S1130A902081266020830E94D00620E030E040E0E0
S1130AA051E40E945E079B01AC0160E074E284E7BC
S1130AB099E40E94280620E030E040E85FE30E94C9
S1130AC0BB050E94CB070E949A066093C4007093F2
S1130AD0C50008958093C600E0ECF0E0808185FFB6
S1130AE0FDCF0895CF93DF93EC018881882331F003
S1130AF021960E946A0589918111FBCFDF91CF91E4
S1130B0008950E94DF000E94D40060E875E280E04E
S1130B1090E00E943C050E94F10078940E94ED024E
S1130B208823E1F30E94E1000E94360400E515E009
S1130B300E9451040E940E012FE38DE093E02150A6
S1130B4080409040E1F700C00000C6E8D4E088810E
S1130B500E946A052296C017D107C9F78AE00E944D
S1130B606A052FE38DE093E0215080409040E1F747
S1130B7000C00000DDCF5058BB27AA270E94D30530
S1130B800C9424070E94160738F00E941D0720F0D9
S1130B9039F49F3F19F426F40C9413070EF4E095EE
S1130BA0E7FB0C940D07E92F0E94350758F3BA1799
S1130BB0620773078407950720F079F4A6F50C946F
S1130BC057070EF4E0950B2EBA2FA02D0B01B90197
S1130BD090010C01CA01A0011124FF27591B99F0AF
S1130BE0593F50F4503E68F11A16F040A22F232FBB
S1130BF0342F4427585FF3CF469537952795A7950B
S1130C00F0405395C9F77EF41F16BA0B620B730BB1
S1130C10840BBAF09150A1F0FF0FBB1F661F771F22
S1130C20881FC2F70EC0BA0F621F731F841F48F4D7
S1130C30879577956795B795F7959E3F08F0B0CF60
S1130C409395880F08F09927EE0F97958795089547
S1130C500E943C060C9424070E941D0758F00E9431
S1130C60160740F029F45F3F29F00C940D07511149
S1130C700C9458070C9413070E94350768F39923C2
S1130C80B1F3552391F3951B550BBB27AA27621784
S1130C907307840738F09F5F5F4F220F331F441F91
S1130CA0AA1FA9F335D00E2E3AF0E0E832D09150C5
S1130CB05040E695001CCAF72BD0FE2F29D0660FB2
S1130CC0771F881FBB1F261737074807AB07B0E8F5
S1130CD009F0BB0B802DBF01FF2793585F4F3AF0FB
S1130CE09E3F510578F00C940D070C9458075F3F14
S1130CF0E4F3983ED4F3869577956795B795F79581
S1130D009F5FC9F7880F911D9695879597F9089568
S1130D10E1E0660F771F881FBB1F62177307840704
S1130D20BA0720F0621B730B840BBA0BEE1F88F713
S1130D30E09508950E94A1066894B1110C94580797
S1130D4008950E943D0788F09F5798F0B92F99277E
S1130D50B751B0F0E1F0660F771F881F991F1AF0A2
S1130D60BA95C9F714C0B13091F00E945707B1E0A9
S1130D7008950C945707672F782F8827B85F39F0A8
S1130D80B93FCCF3869577956795B395D9F73EF43B
S1130D9090958095709561957F4F8F4F9F4F0895E3
S1130DA0E89409C097FB3EF4909580957095619501
S1130DB07F4F8F4F9F4F9923A9F0F92F96E9BB27B7
S1130DC09395F695879577956795B795F111F8CF33
S1130DD0FAF4BB0F11F460FF1BC06F5F7F4F8F4F9E
S1130DE09F4F16C0882311F096E911C0772321F094
S1130DF09EE8872F762F05C0662371F096E8862F2C
S1130E0070E060E02AF09A95660F771F881FDAF782
S1130E10880F9695879597F9089597F99F6780E8C5
S1130E2070E060E008959FEF80EC089500240A9438
S1130E301616170618060906089500240A941216B1
S1130E401306140605060895092E0394000C11F4E4
S1130E50882352F0BB0F40F4BF2B11F460FF04C091
S1130E606F5F7F4F8F4F9F4F089557FD9058440FEA
S1130E70551F59F05F3F71F04795880F97FB991FF5
S1130E8061F09F3F79F087950895121613061406B2
S1130E90551FF2CF4695F1DF08C01616170618063F
S1130EA0991FF1CF86957105610508940895E8941A
S1130EB0BB2766277727CB0197F908950E9471070E
S1130EC00C9424070E94160738F00E941D0720F096
S1130ED0952311F00C940D070C94130711240C9412
S1130EE058070E94350770F3959FC1F3950F50E0A2
S1130EF0551F629FF001729FBB27F00DB11D639FC8
S1130F00AA27F00DB11DAA1F649F6627B00DA11D6D
S1130F10661F829F2227B00DA11D621F739FB00D13
S1130F20A11D621F839FA00D611D221F749F332783
S1130F30A00D611D231F849F600D211D822F762F1C
S1130F406A2F11249F5750409AF0F1F088234AF0F9
S1130F50EE0FFF1FBB1F661F771F881F9150504065
S1130F60A9F79E3F510580F00C940D070C94580787
S1130F705F3FE4F3983ED4F3869577956795B795EC
S1130F80F795E7959F5FC1F7FE2B880F911D969506
S1130F90879597F908950E943D07E8F09E37E8F099
S1130FA09639B8F49E3848F4672F782F8827985FCD
S1130FB0F9CF86957795679593959539D0F3B62FA4
S1130FC0B1706B0F711D811D20F48795779567951E
S1130FD093950C94EF070C940A080C9458078823F3
S1130FE071F4772321F09850872B762F07C066235E
S1130FF011F499270DC09051862B70E060E02AF01F
S11310009A95660F771F881FDAF7880F969587954C
S113101097F908959F3F31F0915020F48795779583
S11310206795B795880F911D9695879597F90895BB
S1131030A0E1B0E0EEE1F8E00C94950B7C011B011B
S11310406A01FC0117821682838181FF44C39E01D9
S11310502F5F3F4F3901F7019381F10193FD859192
S113106093FF81911F01882309F431C3853239F438
S113107093FD859193FF81911F01853239F4B70166
S113108090E00E94FD0C56016501E5CF10E0512C63
S1131090912CFFE1F915D8F08B3279F038F48032D5
S11310A079F08332A1F4F92DF0612EC08D3261F014
S11310B0803369F4292D21602DC0392D3260932E9F
S11310C0892D8460982E2AC0E92DE86015C097FC0C
S11310D02DC020ED280F2A3088F496FE06C03AE091
S11310E0139F200D1124122F19C08AE0589E200D41
S11310F01124522EE92DE0629E2E10C08E3231F45E
S113110096FCE5C2F92DF0649F2E08C08C3621F4BC
S1131110292D2068922E02C0883641F4F10193FDF6
S1131120859193FF81911F018111B3CF9BEB980FA0
S1131130933020F4992D9061805E07C09BE9980F4D
S1131140933008F066C1992D9F7E96FF16E09F7339
S1131150992E853619F49064992E08C0863621F4A8
S1131160392F3068932E02C01111115097FE07C019
S11311701C3350F444244394410E27E00BC0183030
S113118038F027E017E005C027E09CE3492E02C0B1
S1131190212F412C560184E0A80EB11CF601608178
S11311A0718182819381042DA3010E94CC0B6C0177
S11311B0F981FC87F0FF02C0F3FF06C091FC06C072
S11311C092FE06C000E205C00DE203C00BE201C0BE
S11311D000E08C858C7019F001115AC29BC297FEF5
S11311E010C04C0CFC85F4FF04C08A81813309F4DF
S11311F04A94141474F528E0241578F588E0482EF0
S11312002CC096FC2AC0812F90E08C159D059CF083
S11312103CEFC3163FEFD30674F0892D8068982EF7
S11312200AC0E2E0F0E0EC0FFD1FE10FF11D808148
S1131230803319F411501111F4CF97FE0EC04424D9
S11312404394410E812F90E0C816D9062CF41C1942
S113125004C04424439401C010E097FE06C01C144B
S11312601D0434F4C601019605C085E090E002C077
S113127081E090E001110196112331F0212F30E03B
S11312802F5F3F4F820F931F252D30E08217930766
S113129014F4581A01C0512C892D897049F4552031
S11312A039F0B70180E290E00E94FD0C5A94F7CF28
S11312B0002329F0B701802F90E00E94FD0C93FCDD
S11312C009C0552039F0B70180E390E00E94FD0C7D
S11312D05A94F7CF97FE4CC04601D7FE02C0812C2A
S11312E0912CC60188199909F301E80FF91FFE87AB
S11312F0ED87960124193109388B2F87012F10E0CF
S11313001195019511093FEF8316930629F4B7014E
S11313108EE290E00E94FD0CC814D9044CF08F8535
S113132098898815990524F4ED85FE85818101C08D
S113133080E3F1E08F1A91082D853E852F5F3F4FA2
S11313403E872D87801691062CF0B70190E00E940D
S1131350FD0CD9CFC814D90441F49A81963320F4F2
S1131360953319F43C8534FF81E3B70190E04EC016
S11313708A81813319F09C859F7E9C87B70190E018
S11313800E94FD0C111105C094FC18C085E690E084
S113139017C0B7018EE290E00E94FD0C1E5F82E050
S11313A001E0080FF301E80FF11D8081B70190E01F
S11313B00E94FD0C802F0113F3CFE6CF85E490E06B
S11313C0B7010E94FD0CD7FC06C0C114D10441F43E
S11313D0EC85E4FF05C0D194C194D1088DE201C02D
S11313E08BE2B70190E00E94FD0C80E32AE0C21674
S11313F0D1042CF08F5FFAE0CF1AD108F7CFB701F0
S113140090E00E94FD0CB701C601C0960E94FD0C3D
S113141054C1833631F0833779F0833509F056C0EF
S113142020C0560132E0A30EB11CF60180818983ED
S113143001E010E0630112C05601F2E0AF0EB11CEE
S1131440F601C080D18096FE03C0612F70E002C017
S11314506FEF7FEFC6010E94D80C8C01F92DFF7746
S113146014C0560122E0A20EB11CF601C080D18046
S113147096FE03C0612F70E002C06FEF7FEFC601DC
S11314800E94A40C8C01F92DF0689F2EF3FD1AC064
S1131490852D90E008171907A8F4B70180E290E0C1
S11314A00E94FD0C5A94F4CFF60197FC859197FEA7
S11314B081916F01B70190E00E94FD0C51105A9484
S11314C0015011090115110579F7F7C0843611F09F
S11314D0893661F5560197FE09C024E0A20EB11CBD
S11314E0F60160817181828193810AC0F2E0AF0EBE
S11314F0B11CF60160817181072E000C880B990BD9
S1131500F92DFF769F2E97FF09C0909580957095D1
S113151061957F4F8F4F9F4FF0689F2E2AE030E0F8
S1131520A3010E945B0DC82EC6183FC0092D853744
S113153021F40F7E2AE030E01DC0097F8F3691F040
S113154018F4883559F0C3C0803719F0883711F082
S1131550BEC0006104FF09C0046007C094FE08C057
S1131560066006C028E030E005C020E130E002C09B
S113157020E132E0560107FF09C084E0A80EB11C47
S1131580F601608171818281938108C0F2E0AF0E1F
S1131590B11CF6016081718180E090E0A3010E949A
S11315A05B0DC82EC6180F77902E96FE0BC0092D22
S11315B00E7FC11650F494FE0AC092FC08C0092D97
S11315C00E7E05C0DC2C092D03C0DC2C01C0D12EFD
S11315D004FF0DC0FE01EC0DF11D8081803311F478
S11315E0097E09C002FF06C0D394D39404C0802F9F
S11315F0867809F0D39403FD11C000FF06C01C2DAA
S1131600D51480F4150D1D190DC0D51458F4B70167
S113161080E290E00E94FD0CD394F7CFD51410F42F
S11316205D1801C0512C04FF10C0B70180E390E0A5
S11316300E94FD0C02FF17C001FD03C088E790E083
S113164002C088E590E0B7010CC0802F867859F07D
S113165001FF02C08BE201C080E207FD8DE2B70109
S113166090E00E94FD0CC11638F4B70180E390E0CD
S11316700E94FD0C1150F7CFCA94F301EC0DF11D3B
S11316808081B70190E00E94FD0CC110F5CF15C018
S1131690F4E0F51560F584E0581A93FE1FC00111BB
S11316A027C02C8523FF2AC008E610E0392D3071AD
S11316B0932EF8018491811124C0552009F4E4CCBF
S11316C0B70180E290E00E94FD0C5A94F6CFF70136
S11316D08681978126C08FEF9FEF23C0B70180E2F8
S11316E090E00E94FD0C5A945110F8CFD8CF512CA1
S11316F0B701802F90E00E94FD0CD3CF0CE610E0E0
S1131700D5CF91108052B70190E00E94FD0C0F5F7D
S11317101F4FCFCF23E0251510F483E0BDCF512C0C
S1131720C0CF6096E2E10C94B10B2F923F924F929E
S11317305F926F927F928F929F92AF92BF92CF925D
S1131740DF92EF92FF920F931F93CF93DF93CDB766
S1131750DEB7CA1BDB0B0FB6F894DEBF0FBECDBFDE
S113176009942A88398848885F846E847D848C84AF
S11317709B84AA84B984C884DF80EE80FD800C81B8
S11317801B81AA81B981CE0FD11D0FB6F894DEBF9B
S11317900FBECDBFED010895283008F027E03327B0
S11317A0DA01990F311D87FD91600096610571057D
S11317B039F432602E5F3D9330E32A95E1F70895C2
S11317C09F3F30F080387105610509F03C5F3C5F54
S11317D03D93913008F08068911DDF93CF931F9360
S11317E00F93FF92EF92192F987F9695E92F969574
S11317F09695E90FFF27E653FF4F99273327EE24E9
S1131800FF24A701E70105900894079428F4360FF4
S1131810E71EF81E491F511D660F771F881F991F69
S11318200694A1F70590079428F4E70EF81E491FC3
S1131830561FC11D770F881F991F661F0694A1F7B5
S11318400590079428F4F80E491F561FC71FD11D91
S1131850880F991F661F771F0694A1F705900794B8
S113186020F4490F561FC71FD81F990F661F771FF3
S1131870881F0694A9F784911095177041F0D695A6
S1131880C79557954795F794E7941A95C1F7E0E7FC
S1131890F0E06894159015913591659195910590B6
S11318A07FE27395E118F10A430B560BC90BD0097B
S11318B0C0F7E10CF11E431F561FC91FD01D7EF453
S11318C0703311F48A95E6CFE894015030F0080F94
S11318D00AF40027021708F4202F2395022F7A33E5
S11318E028F079E37D932A95E9F710C07D932A9532
S11318F089F6069497956795379517951794E11887
S1131900F10A430B560BC90BD00998F023957E912D
S113191073957A3308F070E37C932013B8F77E91C3
S113192070617D9330F0839571E37D9370E32A9524
S1131930E1F71124EF90FF900F911F91CF91DF9168
S1131940992787FD90950895FC010590615070409A
S11319500110D8F7809590958E0F9F1F0895FB0175
S1131960DC0102C001900D9241505040D8F7089517
S11319706817790768F4FB01DC01E40FF51FA40F75
S1131980B51F02C002900E9241505040D8F70895FE
S11319900C94AF0CFB01DC014150504030F08D91B0
S11319A00190801919F40020B9F7881B990B089548
S11319B0FC016150704001900110D8F7809590951A
S11319C08E0F9F1F0895FB0151915523A9F0BF016C
S11319D0DC014D9145174111E1F759F4CD01019016
S11319E0002049F04D9140154111C9F3FB0141110B
S11319F0EFCF81E090E0019708950F931F93CF9369
S1131A00DF93FB01238121FD03C08FEF9FEF2CC0E7
S1131A1022FF16C04681578124813581421753071E
S1131A2044F4A081B1819D012F5F3F4F3183208316
S1131A308C93268137812F5F3F4F3783268314C0D1
S1131A408B01EC01FB010084F185E02D0995892BC4
S1131A50E1F6D80116968D919C91179701961796E9
S1131A609C938E931697CE01DF91CF911F910F9186
S1131A700895AEE0B0E0EFE3FDE00C94A30B0D8914
S1131A801E8986E08C831A8309838FEF9FE79E83E8
S1131A908D83AE01475E5F4F6F89788DCE010196CD
S1131AA00E941808EF81F885E00FF11F10822E962E
S1131AB0E4E00C94BF0BFA01AA27283051F120313D
S1131AC081F1E8946F936E7F6E5F7F4F8F4F9F4FCE
S1131AD0AF4FB1E03ED0B4E03CD0670F781F891F10
S1131AE09A1FA11D680F791F8A1F911DA11D6A0FDE
S1131AF0711D811D911DA11D20D009F468943F9191
S1131B002AE0269F11243019305D3193DEF6CF018F
S1131B100895462F4770405D4193B3E00FD0C9F755
S1131B20F6CF462F4F70405D4A3318F0495D31FDC2
S1131B304052419302D0A9F7EACFB4E0A695979515
S1131B40879577956795BA95C9F7009761057105EB
S1131B5008959B01AC010A2E069457954795379535
S1131B602795BA95C9F7620F731F841F951FA01D8F
S1091B700895F894FFCF74
S1131B7632334544384D384F4F4C4232544B48303B
S1131B8600474554202F617070732F7468696E671F
S1131B96687474702F73656E645F726571756573AE
S1131BA6743F6170695F6B65793D2573266D657356
S1131BB6736167653D2573004345304B4558544171
S1131BC64A3747565255443000474554202F6170D2
S1131BD670732F7468696E67687474702F73656E9A
S1131BE6645F726571756573743F6170695F6B6577
S1131BF6793D2573000D0A4F4B0D0A0041542B43C2
S1131C0649504D4F44453D25640041542B434950AA
S1131C164D55583D2564004154453000415400411A
S1131C26542B434950434C4F53453D310041542BAB
S1131C3643574D4F44453D25640041542B43574A71
S1131C4641503D222573222C22257322000D0A576A
S1131C5649464920434F4E4E45435445440D0A00D8
S1131C662B43574A41503A31002B43574A41503A85
S1131C7632002B43574A41503A33002B43574A41CB
S1131C86503A340041542B4349505354415455530C
S1131C96005354415455533A320053544154555306
S1131CA63A33005354415455533A3400535441542F
S1131CB655533A35004349504D55583A300041542E
S1131CC62B4349504D55583F0041542B43495053DB
S1131CD6544152543D22544350222C222573222C23
S1131CE625730041542B43495053544152543D22C9
S1131CF62564222C22544350222C222573222C257F
S1131D067300434F4E4E4543540D0A00393837315C
S1131D1633383933383935004A616E69746820447A
S1131D2669616C6F67203447003830006170692E32
S1131D367468696E67737065616B2E636F6D0041BD
S1131D46542B43495053454E443D2564000D0A4FD8
S1131D564B0D0A3E000D0A53454E44204F4B0D0AC7
S1131D660041542B4349505345525645523D222572
S10B1D7673222C2225732200C4
S9030000FC
