:100000000C94BB000C94D8000C94D8000C94D8002D
:100010000C94D8000C94D8000C94D8000C94D80000
:100020000C94D8000C94D8000C94D8000C94D800F0
:100030000C94D8000C94D8000C94D8000C94D800E0
:100040000C94D8000C94D8000C9400060C94D800A2
:100050000C94D8000C94D8000C94D8000C94D800C0
:100060000C94D8000C94D8006E616E00696E660026
:1000700000407A10F35A00A0724E18090010A5D45F
:10008000E80000E87648170000E40B54020000CABC
:100090009A3B000000E1F505000080969800000002
:1000A00040420F000000A086010000001027000061
:1000B0000000E803000000006400000000000A00E7
:1000C000000000000100000000002C76D888DC67EA
:1000D0004F0823DFC1DFAE59E1B1B796E5E3E45342
:1000E000C63AE651997696E8E6C28426EB898C9B5F
:1000F00062ED407C6FFCEFBC9C9F40F2BAA56FA5FF
:10010000F490055A2AF75C936B6CF9676DC11BFC80
:10011000E0E40D47FEF520E6B500D0ED902E03009B
:10012000943577050080841E080000204E0A0000E8
:1001300000C80C333333330F986E12831141EF8DA7
:100140002114893BE65516CFFEE6DB18D1844B38E7
:100150001BF77C1D901DA4BBE424203284725E2218
:100160008100C9F124ECA1E53D276364696E6F70DD
:10017000737578585B0011241FBECFEFD8E0DEBF47
:10018000CDBF13E0A0E0B1E0E6E6F7E302C00590E2
:100190000D92AA32B107D9F725E0AAE2B3E001C077
:1001A0001D92A637B207E1F70E94170E0C94B11BFF
:1001B0000C940000ECE7F0E0808180648083EAE743
:1001C000F0E08081876880830895ECE7F0E090811B
:1001D000907F8F70892B8083EAE7F0E080818064D4
:1001E0008083808186FDFDCF809178009091790099
:1001F0000895579A08958BB180588BB92FE38DE0FD
:1002000093E0215080409040E1F700C000008BB1A6
:1002100080588BB908953F924F925F926F927F9270
:100220008F929F92AF92BF92CF92DF92EF92FF9206
:100230000F931F93CF93DF93CDB7DEB72A970FB6F7
:10024000F894DEBF0FBECDBF0E94AC010E94DF0D4F
:100250004C010F2EF2E3AF2EF3E0BF2EF02D0F2E48
:10026000FCE96F2EF4E07F2EF02D00E010E00F2E61
:10027000FCE04F2EF1E05F2EF02D0F2EFAE03F2E26
:10028000F02DCE0101966C010F5F1F4F1F930F934E
:100290005F924F921F923F92DF92CF920E94D617A9
:1002A000B601C4010E94EB0D7C01F5012191319151
:1002B000419151915F0164E171E00E94B10DF30140
:1002C00021913191419151913F016DE171E0C7015F
:1002D0000E94B10D0FB6F894DEBF0FBECDBF033044
:1002E000110591F620E030E046E950E066E074E068
:1002F000C4010E942E0DC4010E94E50C2A960FB67F
:10030000F894DEBF0FBECDBFDF91CF911F910F914B
:10031000FF90EF90DF90CF90BF90AF909F908F9025
:100320007F906F905F904F903F90089583E0ECE94D
:10033000F4E0DF01982F1D929A95E9F7E2E3F3E0EC
:10034000DF011D928A95E9F788ECEEE3F3E0DF0127
:100350001D928A95E9F70895AF92BF92CF92DF92EE
:10036000EF92FF920F931F93CF93DF930F2EFCE931
:10037000AF2EF4E0BF2EF02D02E313E0C0E0D0E09A
:10038000BE010D2E000C880B990B0E94560F6B01BD
:100390007C012BE734E14AE452E40E943B0EF50174
:1003A00061937193819391935F0125E83BEE41E264
:1003B00051E4C701B6010E943B0EF80161937193AD
:1003C000819391938F012196C330D105C9F680E0C6
:1003D0000E94E500BC0180E090E00E94540F609311
:1003E0003203709333038093340390933503DF918A
:1003F000CF911F910F91FF90EF90DF90CF90BF9022
:10040000AF9008950E940B0186E094E09F938F9334
:1004100089E291E09F938F938AE391E09F938F937A
:100420008EE393E09F938F930E9406188EE393E0F0
:100430000E9465058EE393E00E94E1052FE78AE1C3
:1004400096E0215080409040E1F700C000008DB759
:100450009EB708960FB6F8949EBF0FBE8DBF089545
:100460002F923F924F925F926F927F928F929F92C4
:10047000AF92BF92CF92DF92EF92FF920F931F93B2
:10048000CF93DF93CDB7DEB72C970FB6F894DEBFCE
:100490000FBECDBF9E838D832DB73EB73C872B8784
:1004A000FC0101900020E9F731975F01A81AB90A11
:1004B000BB24A5014150510958874F838DB79EB782
:1004C0008A199B090FB6F8949EBF0FBE8DBFADB7BA
:1004D000BEB711964D0180912A0390912B03A091F4
:1004E0002C03B0912D03803F984DAF4FBF4F61F467
:1004F00010922A0310922B0310922C0310922D03BA
:1005000082E0809371059BC019821A821B821C8233
:100510002F803884280C391C94012F5F3F4F3A8775
:10052000298780917105843011F410927105E9EAF0
:10053000F4E001900020E9F73197CF01895A944007
:100540006C01E12CF12CC114D104E104F10409F493
:1005500051C089EF90E00197F1F700C000002981B8
:100560003A814B815C812F5F3F4F4F4F5F4F298313
:100570003A834B835C83E9EAF4E001900020E9F7D9
:100580003197CF01895A9440A0E0B0E0C816D9064F
:10059000EA06FB0679F509EA14E0412C512C3201F8
:1005A0004F81588569857A85C4010E945517D80105
:1005B0008D918D01F1018083A5016D817E81C40142
:1005C0000E946717892B61F410922A0310922B0363
:1005D00010922C0310922D0381E0809371052FC09F
:1005E000FFEF4F1A5F0A6F0A7F0A4C145D046E0416
:1005F0007F04B1F689EF90E00197F1F700C00000A9
:1006000029813A814B815C812F5F3F4F4F4F5F4F74
:1006100029833A834B835C8380912A0390912B0337
:10062000A0912C03B0912D03805F984DAF4FBF4F29
:10063000281739074A075B0708F473CF59CF4B8552
:100640005C850FB6F8945EBF0FBE4DBF2C960FB6FB
:10065000F894DEBF0FBECDBFDF91CF911F910F91F8
:10066000FF90EF90DF90CF90BF90AF909F908F90D2
:100670007F906F905F904F903F902F90089588ECFF
:10068000E9EAF4E0DF011D928A95E9F7109231035F
:100690001092300310922F0310922E030895CF93DF
:1006A000DF93EC0184E080937105CE010E9430025B
:1006B000809171058823C9F3DF91CF9108950E943D
:1006C0004F0381E090917105923009F480E0089524
:1006D0000F931F93CF93DF938C01EB010E943F0395
:1006E000C8010E946E0689ED91E00E946E06CE015F
:1006F0000E945F03DF91CF911F910F9108950F9397
:100700001F93CF93DF93CDB7DEB764970FB6F894FE
:10071000DEBF0FBECDBF8E010F5F1F4F94E1F8010A
:1007200011929A95E9F71F928F9388E791E09F9332
:100730008F931F930F930E9406181C8A61E771E044
:10074000C8010E9468030F900F900F900F900F90B8
:100750000F9064960FB6F894DEBF0FBECDBFDF9149
:10076000CF911F910F9108950F931F93CF93DF9314
:10077000CDB7DEB764970FB6F894DEBF0FBECDBF1E
:100780008E010F5F1F4F94E1F80111929A95E9F7DE
:100790001F928F9386E891E09F938F931F930F93FF
:1007A0000E9406181C8A61E771E0C8010E94680374
:1007B0000F900F900F900F900F900F9064960FB6C0
:1007C000F894DEBF0FBECDBFDF91CF911F910F9187
:1007D0000895CF93C5E061E771E083E991E00E945D
:1007E000680381110AC061E771E088E991E00E9425
:1007F0006803811102C0C15071F7CF9108950F9322
:100800001F93CF93DF93CDB7DEB764970FB6F894FD
:10081000DEBF0FBECDBF8E010F5F1F4F94E1F80109
:1008200011929A95E9F71F928F9389EA91E09F932D
:100830008F931F930F930E9406181C8A61E771E043
:10084000C8010E9468030F900F900F900F900F90B7
:100850000F9064960FB6F894DEBF0FBECDBFDF9148
:10086000CF911F910F9108950F931F93CF93DF9313
:10087000CDB7DEB7EC970FB6F894DEBF0FBECDBF95
:100880008E010F5F1F4F2CE3F80111922A95E9F7B3
:100890007F936F939F938F9386EB91E09F938F93BA
:1008A0001F930F930E9406181CAE69EC71E0C801FB
:1008B0000E9468030FB6F894DEBF0FBECDBF811152
:1008C00022C06CED71E089EA94E00E948017892BC8
:1008D000E1F465EE71E089EA94E00E948017892BCB
:1008E000B1F46EEE71E089EA94E00E948017892BE2
:1008F00081F467EF71E089EA94E00E948017892B08
:1009000051F485E009C080E007C081E005C082E0C5
:1009100003C083E001C084E0EC960FB6F894DEBF1C
:100920000FBECDBFDF91CF911F910F91089561E769
:1009300071E080E092E00E9468036DE072E089EA75
:1009400094E00E948017892BD1F466E172E089EA75
:1009500094E00E948017892BA1F46FE172E089EA8C
:1009600094E00E948017892B71F468E272E089EAB2
:1009700094E00E948017892B41F484E0089580E080
:10098000089581E0089582E0089583E00895DF925C
:10099000EF92FF920F931F93CF93DF93CDB7DEB704
:1009A000EC970FB6F894DEBF0FBECDBFD82E162F32
:1009B000072FF42EE52EFE0131968CE3DF011D9208
:1009C0008A95E9F761E372E08AE392E00E946803A6
:1009D0008823A1F0EF92FF920F931F9385E492E09A
:1009E0009F938F93CE0101969F938F930E94061839
:1009F0000FB6F894DEBF0FBECDBF15C0EF92FF92C9
:100A00000F931F931F92DF928FE592E09F938F9336
:100A1000CE0101969F938F930E9406180FB6F8940B
:100A2000DEBF0FBECDBF6EE772E0CE0101960E9421
:100A30006803811106C080917105823021F085E044
:100A400003C081E001C082E0EC960FB6F894DEBFEF
:100A50000FBECDBFDF91CF911F910F91FF90EF900F
:100A6000DF90089583E00E94FF0380E00E94B403BA
:100A700080E00E947F030E949704833031F468E88D
:100A800072E084E992E00E94340445EA52E068EAA8
:100A900072E080E00E94C70408950E94970480934A
:100AA000A804833031F468E872E084E992E00E949F
:100AB00034048091A804823039F445EA52E068EAAF
:100AC00072E080E00E94C7040895EF92FF920F93B6
:100AD0001F93CF93DF93CDB7DEB764970FB6F8942B
:100AE000DEBF0FBECDBF8C01CE0101967C0184E13B
:100AF000F70111928A95E9F7F80101900020E9F7D2
:100B0000CF01801B910B01969F938F938BEB92E00B
:100B10009F938F93FF92EF920E9406181C8A69ECB4
:100B200072E0C7010E94680361ED72E0C8010E9493
:100B300068030F900F900F900F900F900F908111FE
:100B400006C080917105823021F085E003C081E00C
:100B500001C082E064960FB6F894DEBF0FBECDBF31
:100B6000DF91CF911F910F91FF90EF9008958091A9
:100B700030039091310320912E0330912F03821B7B
:100B8000930B089520912E0330912F038091300311
:100B9000909131032817390784F480912E039091A6
:100BA0002F039C012F5F3F4F30932F0320932E0381
:100BB000FC01E755FB4F808108950E943F0380E0D0
:100BC00008950F931F93CF93DF93E7EAF1E63197F0
:100BD000F1F700C00000C82FD92F00E010E005C0D9
:100BE0000F5F1F4F0E94C20589930E94B705181618
:100BF0001906B4F3C801DF91CF911F910F910895A9
:100C00001F920F920FB60F9211242F938F939F93E1
:100C1000EF93FF932FB7F894E0913003F0913103F5
:100C20008091C600E755FB4F8083809130039091FF
:100C30003103019690933103809330038091300308
:100C400090913103883C910541F410923103109248
:100C5000300310922F0310922E032FBFFF91EF91BC
:100C60009F918F912F910F900FBE0F901F9018950D
:100C7000E0ECF0E0208122602083E1ECF0E02081D4
:100C800028692083E2ECF0E02081266020830E9426
:100C9000540F20E030E040E051E40E940B109B0133
:100CA000AC0160E074E284E799E40E94AC0E20E0BD
:100CB00030E040E85FE30E943A0E0E9478100E9404
:100CC0001E0F6093C4007093C50008958093C60002
:100CD000E0ECF0E0808185FFFDCF0895CF93DF93B6
:100CE000EC018881882331F021960E946606899163
:100CF0008111FBCFDF91CF910895CF93DF93DC017A
:100D0000892BD1F02D913C91119721153105A1F03E
:100D100014968D919C911597E901C80FD91FFE017A
:100D200001900020E9F73197EC1BFD0BE80FF91F4C
:100D30001596FC93EE931497DF91CF910895EF925F
:100D4000FF920F931F93CF93DF930097B9F0DB01CE
:100D5000EC01FC0101900020E9F78F01081B190B41
:100D6000ED91FC91C80109957C01009751F0A80113
:100D7000BE010E944C178E2D9F2D04C080E090E094
:100D800001C09F2DDF91CF911F910F91FF90EF90A8
:100D90000895EF92FF920F931F93CF93DF93FC017F
:100DA000892B09F473C080819181009709F479C07F
:100DB000228133812115310531F04481558142175B
:100DC000530708F066C077230CF466C04481558150
:100DD000DA0111966A0F7B1F2617370718F0840F68
:100DE000951F5FC020853185232B09F058C0611500
:100DF00020E4720728F077233CF480E090E051C0B3
:100E00008B01000F111F02C00FEF1FE7EF010088D9
:100E1000F189E02D309789F0B80109957C01892B83
:100E200061F5EE85FF858881998109951B821A827B
:100E30001982188280E090E034C0EC85FD85C801FD
:100E400009957C01009761F4EE85FF858881998181
:100E500009951B821A821982188280E090E021C0D5
:100E60004C815D814F5F5F4F688179810E944C1793
:100E7000EE85FF858881998109951B830A83F98214
:100E8000E8828C819D818E0D9F1D0BC080E090E0DB
:100E900008C080E090E005C080E090E002C080E003
:100EA00090E0DF91CF911F910F91FF90EF90089507
:100EB000DC01ED91FC9182E190E00995009729F029
:100EC00022E1FC0111922A95E9F708953F924F9291
:100ED0005F926F927F928F929F92AF92BF92CF92CA
:100EE000DF92EF92FF920F931F93CF93DF936115E1
:100EF000710509F4DAC0AB01EC01892B21F098816E
:100F0000911112C0DEC063E070E0CA010E94C90600
:100F1000009709F4CDC022E232E2FC013183208344
:100F2000128281E090E0D8C07E01FFEFEF1AFF0A45
:100F300000E010E001C07F019E3038F49C3048F49E
:100F400028EF290F233040F404C0923211F09C3571
:100F500019F40F5F1F4F04C0903210F40B5F1F4F46
:100F6000F70191919111E7CFEC1AFD0AE00EF11E05
:100F7000B7016D5F7F4FCA010E94C9066C01892BC2
:100F800009F499C0012B81F412E2F6011193CF010B
:100F9000A701BE010E944C17F601EE0DFF1D118343
:100FA000128281E090E098C082E2F60181938F0185
:100FB0009881992309F470C00F2EFCE59F2EF02D27
:100FC0000F2EF6E63F2EF02D0F2EF4EFAF2EF2E0AF
:100FD000BF2EF02D0F2EF2E24F2EF02D0F2EF2E746
:100FE0005F2EF02D0F2EF4E76F2EF02D0F2EFEE664
:100FF0007F2EF02D0F2EF2E68F2EF02D903240F046
:10100000923231F09C3521F0F801908398013DC077
:1010100098012F5F3F4FF801908288818C30C1F09A
:1010200038F48930F1F08A30B1F08830E9F40DC03D
:10103000823241F08C3519F08D30B1F40FC0F801D7
:10104000918223C0F801418220C0F80181821DC035
:10105000F80131821AC0F801718217C0F80151827B
:1010600014C0F801618211C01F928F93BF92AF929A
:101070003F932F930E94061898012B5F3F4F0F90CC
:101080000F900F900F900F900F90219689010F5F96
:101090001F4F98819111B2CFF601EE0DFF1D82E234
:1010A0008183128281E090E017C080E090E014C05C
:1010B00080E090E011C080E090E00EC080E090E021
:1010C0000BC063E070E0CA010E94C9066C01892B65
:1010D000A9F3E12CF12C58CFDF91CF911F910F9103
:1010E000FF90EF90DF90CF90BF90AF909F908F9048
:1010F0007F906F905F904F903F90089561157105BC
:1011000009F445C0009709F445C06817790709F448
:1011100044C0DC011496ED91FC911597309761F471
:1011200015967C936E931497FB01738362831182EF
:10113000108281E090E00895A281B381109789F038
:1011400011967C936E93FB01B383A283DC0114960A
:10115000ED91FC9115977383628381E090E008958F
:10116000F9012081318121153105D1F77183608327
:10117000DB011396FC93EE931297DC011496ED912C
:10118000FC9115977383628381E090E0089580E07D
:1011900090E0089580E090E0089580E090E0089568
:1011A000AF92BF92CF92DF92EF92FF920F931F9375
:1011B000CF93DF930097B9F161157105B9F141152E
:1011C0005105B9F184179507B9F1F8017901EA01E0
:1011D0008B016C01EF2B29F0AE80BF806894B1F8D1
:1011E0000BC0B901C8010E949F068C01892B39F1FF
:1011F000AE80BF80E894B1F88E819F8191FD0AC0D6
:1012000088899989009731F0D7011296ED91FC9168
:1012100013970995198B088BBF82AE82BE01C60158
:101220000E947E080EC080E090E00BC080E090E05D
:1012300008C080E090E005C080E090E002C080E05F
:1012400090E0DF91CF911F910F91FF90EF90DF9091
:10125000CF90BF90AF9008952F923F924F925F92A0
:101260006F927F928F929F92AF92BF92CF92DF92B6
:10127000EF92FF920F931F93CF93DF93CDB7DEB71B
:10128000A2970FB6F894DEBF0FBECDBF009709F44A
:1012900053C36115710509F452C38B016C01DC0164
:1012A0001696ED90FC901797FF24B8E0EB16F1042A
:1012B00009F460C07CF4F2E0EF16F10409F446C0D2
:1012C00024E0E216F104E9F031E0E316F10409F05C
:1012D00039C32BC080E2E816F10409F458C134F494
:1012E000A0E1EA16F10409F44BC12CC3B0E4EB16FB
:1012F000F10409F4DFC1E0E8EE16F10409F420C1BD
:1013000021C365E070E0C8010E94C906009709F496
:101310001CC325E0EAEFF2E0DC0101900D922A9572
:10132000E1F7EE24E394F12C36C366E070E0C801E7
:101330000E94C906009709F40BC326E0EFEFF2E024
:10134000DC0101900D922A95E1F725C365E070E07C
:10135000C8010E94C906009709F4FDC225E0E5E036
:10136000F3E0DC0101900D922A95E1F7EE24E3947D
:10137000F12C11C3DC011C96CD90DD90ED90FC901A
:101380001F97FE0131968AE1DF011D928A95E9F7E8
:101390001B8E1C8E1D8E1E8EA7019601C701B601E5
:1013A0000E94A70E81110CC0A7019601C701B601CA
:1013B0000E943A0E9B01AC010E94A70E8823A9F05F
:1013C00085E0EAEFF2E0DE01119601900D928A9538
:1013D000E1F765E070E0C8010E94C9066C01892B45
:1013E00009F4A5C064E070E07EC0FF92EF92DF9246
:1013F000CF928AE093E09F938F93FE0131965F0135
:10140000FF93EF930E9406181C01CE014B969F9309
:101410008F9381E193E09F938F93BF92AF920E944D
:1014200028180FB6F894DEBF0FBECDBF0197A9F5FF
:101430008B8C9C8CAD8CBE8C24013501E89477F8A4
:10144000D701C601BF778F8F98A3A9A3BAA39C0128
:10145000AD01C301B2010E940610181624F04F8C92
:1014600058A069A07AA0A7019601C501B4010E9405
:101470003A0E4B015C01E894B7F820E030E040E020
:1014800054E3C301B2010E940B109B01AC01C501E2
:10149000B4010E94A70E1816A4F4FF92EF92DF92F7
:1014A000CF9285E193E09F938F93CE0101969F9316
:1014B0008F930E9406181C010FB6F894DEBF0FBE72
:1014C000CDBF7101BAE12B163104A0F5B1016F5FF8
:1014D0007F4FC8010E94C9066C01892B71F121144C
:1014E0003104A1F0B101FE013196D6019F01260F12
:1014F000371F4EE291919E3211F44C9301C09C93A0
:1015000011962E173F07B1F77B0102C060E070E033
:10151000F601E60FF71F1082F80184819581E80E2D
:10152000F91EF582E482EE24E394F12C34C2E12C1E
:10153000F12C31C2E12CF12C2EC2E12CF12C2BC26A
:10154000F601A085B185109709F408C2FD0101904C
:101550000020E9F77F01EA1AFB0AB701C8010E94DF
:10156000C906009709F4FDC1D60118966D917C91CA
:101570001997A7010E944C17EE24E394F12C0BC29B
:10158000F601808591850E9466077C0104C2D60120
:101590001496CD90DC90159761E070E0C8010E9430
:1015A000C906009709F4E0C12BE5FC012083D801AE
:1015B00014968D919C911597019615969C938E93F8
:1015C000149716968D919C911797019617969C9358
:1015D0008E931697C114D10409F452C068947724ED
:1015E00071F8812C99249394A12C0F2EFCE2BF2E2C
:1015F000F02D6894662465F8B801C6010E942C0994
:101600007C01892B09F4C7C1C8010E947D06F6013F
:1016100080819181892BA1F1D8011A968D919C919D
:101620001B97892B19F4E92CFA2C02C0E72CF82C13
:10163000B7016F5F7F4FC8010E94C906009709F488
:1016400096C1FC01B082D8011A962D913C911B974E
:10165000232B11F4319605C0FC013296DC01119662
:101660006C921082F801848195818E0D9F1D958367
:101670008483D601CD90DC90C114D10409F0BCCF95
:1016800062E070E0C8010E94C906009709F472C1C7
:101690002DE5FC0120831182D80116968D919C9135
:1016A0001797019717969C938E931697EE24E394C1
:1016B000F12C71C1F601C480D580DB011A968D91A1
:1016C0009C911B97892B21F4EE24E394F12C04C008
:1016D0006894EE24E1F8F12CB7016F5F7F4FC801E9
:1016E0000E94C906009709F448C12BE7FC0120833A
:1016F000D80116962D913C9117972F5F3F4F179663
:101700003C932E9316971A962D913C911B97232B61
:1017100011F02AE02183F80184819581E80EF91EF9
:10172000F582E482C114D10409F4C6C00F2EF9E099
:10173000BF2EF02D6894332431F8212C99249394F2
:10174000A12C0F2EFAE38F2EF02D512C412C0F2EB1
:10175000FCE27F2EF02D0F2EFAE06F2EF02DD80137
:101760001A968D919C911B97892B29F116966D9154
:101770007C911797C8010E94C906009709F400C11F
:10178000F801468157814115510571F0FC0120E0B7
:1017900030E0B1922F5F3F4FD80116964D915C918A
:1017A000179724173507A8F3F80184819581480F0E
:1017B000591F55834483B801D60150968D919C9151
:1017C00051970E9466077C01892B09F4E4C0C80187
:1017D0000E947D06F80182859385892B19F4E92CF6
:1017E000FA2C02C0E32CF22CB701C8010E94C906F2
:1017F000009709F4C8C0DC018C92F801228533857A
:10180000232B11F01196BC92D80114968D919C91C6
:101810001597E80EF91E1596FC92EE921497B801F2
:10182000C6010E942C097C01892B09F4B4C0C801AF
:101830000E947D06E92CFA2CF60180819181892B8A
:1018400011F4E52CF42C892D9A2DD8011A962D919E
:101850003C911B97232B11F4852D942DE80EF91E36
:10186000B7016F5F7F4FC8010E94C906009709F456
:101870008DC0F60120813181232B29F0FC013196A6
:10188000DC017C9201C0FC01D8011A968D919C91DB
:101890001B97892B11F0608231961082F8018481A8
:1018A0009581E80EF91EF582E482D601CD90DC9098
:1018B000C114D10409F053CFF80182859385892B97
:1018C00029F0668177816F5F7F4F02C062E070E030
:1018D000C8010E94C906009709F45BC0D8011A9696
:1018E0002D913C911B97232BC1F016962D913C9185
:1018F00017972130310589F040E050E069E001960A
:10190000FC01319760834F5F5F4FF801268137817B
:10191000215031094217530790F32DE7DC012C9336
:1019200011961C92F801868197810197978386838F
:10193000EE24E394F12C2FC0E12CF12C2CC0E12CEF
:10194000F12C29C0E12CF12C26C0E12CF12C23C074
:10195000E12CF12C20C0E12CF12C1DC0E12CF12C4C
:101960001AC0E12CF12C17C0E12CF12C14C0E12C91
:10197000F12C11C0E12CF12C0EC0E12CF12C0BC08C
:10198000E12CF12C08C0E12CF12C05C0E12CF12C4C
:1019900002C0E12CF12CC701A2960FB6F894DEBF6D
:1019A0000FBECDBFDF91CF911F910F91FF90EF90B0
:1019B000DF90CF90BF90AF909F908F907F906F906F
:1019C0005F904F903F902F900895EF92FF920F936A
:1019D0001F93CF93DF93EC01892BC9F10F2EF6E013
:1019E000EF2EF1E0FF2EF02D088119818E819F816D
:1019F00090FD14C08C819D81009731F00E94E50C10
:101A00008E819F8190FD0AC088859985009731F06D
:101A1000D7011296ED91FC91139709958E819F81C4
:101A200091FD0AC088899989009731F0D7011296F3
:101A3000ED91FC9113970995D7011296ED91FC91C8
:101A40001397CE010995C02FD12F209769F6DF910A
:101A5000CF911F910F91FF90EF9008950F931F93D7
:101A6000CF93DF93CDB7DEB762970FB6F894DEBFA2
:101A70000FBECDBF8E010F5F1F4FA2E1F801119283
:101A8000AA95E9F75523D4F061157105D1F07A8351
:101A900069835C834B8341E050E05A8749873C87E8
:101AA0002B8726E0E6E0F1E0DE011D9601900D9225
:101AB0002A95E1F7B8010E942C0905C080E090E06A
:101AC00002C080E090E062960FB6F894DEBF0FBED1
:101AD000CDBFDF91CF911F910F910895CF92DF92EB
:101AE000EF92FF92CF93DF936B017C0186E091E050
:101AF0000E945807EC01892B61F188E090E09F83F8
:101B00008E83CC86DD86EE86FF8620E03EEF4FEFAB
:101B100056E4C701B6010E94061088232CF08FEF0F
:101B20009FE79B878A8715C020E030E040E057ECB4
:101B3000C701B6010E94A70E18162CF080E090E8AD
:101B40009B878A8706C0C701B6010E941E0F7B874C
:101B50006A87CE01DF91CF91FF90EF90DF90CF9019
:101B60000895CF92DF92EF92FF920F931F93CF933E
:101B7000DF937C016B01CA01B9010E946E0DD82F61
:101B8000C92F00E010E026E031E0482F592FB601C0
:101B9000C7010E94D008892B39F48D2F9C2F0E94F9
:101BA000E50C80E090E002C08D2F9C2FDF91CF915B
:101BB0001F910F91FF90EF90DF90CF90089586E0F6
:101BC00091E00E945807009729F020E430E0FC01E2
:101BD000378326830895CF92DF92EF92FF920F937F
:101BE0001F93CF93DF937C016B010E94DF0DD82FF1
:101BF000C92F00E010E026E031E0482F592FB60150
:101C0000C7010E94D008892B39F48D2F9C2F0E9488
:101C1000E50C80E090E002C08D2F9C2FDF91CF91EA
:101C20001F910F91FF90EF90DF90CF9008950E9449
:101C3000F9000E94DA0060E875E280E090E00E941E
:101C400038060E94960178940E94E9038823E1F304
:101C50000E94FB000E9432050E944D050E94020274
:101C60002FE38DE093E0215080409040E1F700C0E9
:101C70000000F2CF5058BB27AA270E94520E0C94A6
:101C8000CC0F0E94BE0F38F00E94C50F20F039F42F
:101C90009F3F19F426F40C94BB0F0EF4E095E7FB7C
:101CA0000C94B50FE92F0E94DD0F58F3BA176207A5
:101CB00073078407950720F079F4A6F50C94FF0FBD
:101CC0000EF4E0950B2EBA2FA02D0B01B901900157
:101CD0000C01CA01A0011124FF27591B99F0593F9B
:101CE00050F4503E68F11A16F040A22F232F342FE3
:101CF0004427585FF3CF469537952795A795F04031
:101D00005395C9F77EF41F16BA0B620B730B840B45
:101D1000BAF09150A1F0FF0FBB1F661F771F881FFD
:101D2000C2F70EC0BA0F621F731F841F48F4879555
:101D300077956795B795F7959E3F08F0B0CF939547
:101D4000880F08F09927EE0F9795879508950E94C0
:101D5000910F08F481E008950E94C00E0C94CC0FFE
:101D60000E94C50F58F00E94BE0F40F029F45F3F5B
:101D700029F00C94B50F51110C9400100C94BB0F6A
:101D80000E94DD0F68F39923B1F3552391F3951B5E
:101D9000550BBB27AA2762177307840738F09F5F8C
:101DA0005F4F220F331F441FAA1FA9F335D00E2EF9
:101DB0003AF0E0E832D091505040E695001CCAF766
:101DC0002BD0FE2F29D0660F771F881FBB1F261729
:101DD00037074807AB07B0E809F0BB0B802DBF0100
:101DE000FF2793585F4F3AF09E3F510578F00C94CF
:101DF000B50F0C9400105F3FE4F3983ED4F3869542
:101E000077956795B795F7959F5FC9F7880F911DEF
:101E10009695879597F90895E1E0660F771F881FDB
:101E2000BB1F621773078407BA0720F0621B730B8E
:101E3000840BBA0BEE1F88F7E09508950E94250FDA
:101E40006894B1110C94001008950E94E50F88F079
:101E50009F5798F0B92F9927B751B0F0E1F0660F6E
:101E6000771F881F991F1AF0BA95C9F714C0B130AF
:101E700091F00E94FF0FB1E008950C94FF0F672FBF
:101E8000782F8827B85F39F0B93FCCF386957795DE
:101E90006795B395D9F73EF49095809570956195C7
:101EA0007F4F8F4F9F4F0895E89409C097FB3EF4F2
:101EB00090958095709561957F4F8F4F9F4F992397
:101EC000A9F0F92F96E9BB279395F6958795779515
:101ED0006795B795F111F8CFFAF4BB0F11F460FFD5
:101EE0001BC06F5F7F4F8F4F9F4F16C0882311F02D
:101EF00096E911C0772321F09EE8872F762F05C041
:101F0000662371F096E8862F70E060E02AF09A95DB
:101F1000660F771F881FDAF7880F9695879597F9D0
:101F20000895990F0008550FAA0BE0E8FEEF16166A
:101F30001706E807F907C0F012161306E407F507BD
:101F400098F0621B730B840B950B39F40A2661F031
:101F5000232B242B252B21F408950A2609F4A140D4
:101F6000A6958FEF811D811D089597F99F6780E8E1
:101F700070E060E008959FEF80EC089500240A94DB
:101F80001616170618060906089500240A94121654
:101F90001306140605060895092E0394000C11F487
:101FA000882352F0BB0F40F4BF2B11F460FF04C034
:101FB0006F5F7F4F8F4F9F4F089557FD9058440F8D
:101FC000551F59F05F3F71F04795880F97FB991F98
:101FD00061F09F3F79F08795089512161306140655
:101FE000551FF2CF4695F1DF08C0161617061806E2
:101FF000991FF1CF86957105610508940895E894BD
:10200000BB2766277727CB0197F908950E94910F88
:1020100008F48FEF08950E941E100C94CC0F0E94BC
:10202000BE0F38F00E94C50F20F0952311F00C94DC
:10203000B50F0C94BB0F11240C9400100E94DD0FFF
:1020400070F3959FC1F3950F50E0551F629FF0010B
:10205000729FBB27F00DB11D639FAA27F00DB11D24
:10206000AA1F649F6627B00DA11D661F829F2227AD
:10207000B00DA11D621F739FB00DA11D621F839F34
:10208000A00D611D221F749F3327A00D611D231F0A
:10209000849F600D211D822F762F6A2F11249F5758
:1020A00050409AF0F1F088234AF0EE0FFF1FBB1F5B
:1020B000661F771F881F91505040A9F79E3F51051A
:1020C00080F00C94B50F0C9400105F3FE4F3983E41
:1020D000D4F3869577956795B795F795E7959F5FC4
:1020E000C1F7FE2B880F911D9695879597F9089556
:1020F0000E94E50FE8F09E37E8F09639B8F49E3874
:1021000048F4672F782F8827985FF9CF86957795C1
:10211000679593959539D0F3B62FB1706B0F711DFC
:10212000811D20F487957795679593950C949C1065
:102130000C94B7100C940010882371F4772321F0CD
:102140009850872B762F07C0662311F499270DC06E
:102150009051862B70E060E02AF09A95660F771F09
:10216000881FDAF7880F9695879597F908959F3F0E
:1021700031F0915020F4879577956795B795880F42
:10218000911D9695879597F90895A0E1B0E0EBEC45
:10219000F0E10C9442147C011B016A01FC011782DE
:1021A0001682838181FF44C39E012F5F3F4F390117
:1021B000F7019381F10193FD859193FF81911F01B7
:1021C000882309F431C3853239F493FD859193FF57
:1021D00081911F01853239F4B70190E00E949A176E
:1021E00056016501E5CF10E0512C912CFFE1F91566
:1021F000D8F08B3279F038F4803279F08332A1F460
:10220000F92DF0612EC08D3261F0803369F4292DF3
:1022100021602DC0392D3260932E892D8460982E37
:102220002AC0E92DE86015C097FC2DC020ED280FCD
:102230002A3088F496FE06C03AE0139F200D112440
:10224000122F19C08AE0589E200D1124522EE92D1C
:10225000E0629E2E10C08E3231F496FCE5C2F92D5C
:10226000F0649F2E08C08C3621F4292D2068922E10
:1022700002C0883641F4F10193FD859193FF81916D
:102280001F018111B3CF9BEB980F933020F4992D50
:102290009061805E07C09BE9980F933008F066C19B
:1022A000992D9F7E96FF16E09F73992E853619F41F
:1022B0009064992E08C0863621F4392F3068932E09
:1022C00002C01111115097FE07C01C3350F4442472
:1022D0004394410E27E00BC0183038F027E017E098
:1022E00005C027E09CE3492E02C0212F412C560156
:1022F00084E0A80EB11CF601608171818281938116
:10230000042DA3010E9460166C01F981FC87F0FF87
:1023100002C0F3FF06C091FC06C092FE06C000E2B8
:1023200005C00DE203C00BE201C000E08C858C709B
:1023300019F001115AC29BC297FE10C04C0CFC85CB
:10234000F4FF04C08A81813309F44A94141474F5AB
:1023500028E0241578F588E0482E2CC096FC2AC089
:10236000812F90E08C159D059CF03CEFC3163FEF4C
:10237000D30674F0892D8068982E0AC0E2E0F0E060
:10238000EC0FFD1FE10FF11D8081803319F4115016
:102390001111F4CF97FE0EC044244394410E812FB7
:1023A00090E0C816D9062CF41C1904C044244394A8
:1023B00001C010E097FE06C01C141D0434F4C601D1
:1023C000019605C085E090E002C081E090E0011137
:1023D0000196112331F0212F30E02F5F3F4F820F04
:1023E000931F252D30E08217930714F4581A01C06B
:1023F000512C892D897049F4552039F0B70180E2BC
:1024000090E00E949A175A94F7CF002329F0B70161
:10241000802F90E00E949A1793FC09C0552039F054
:10242000B70180E390E00E949A175A94F7CF97FE85
:102430004CC04601D7FE02C0812C912CC6018819E0
:102440009909F301E80FF91FFE87ED87960124191A
:102450003109388B2F87012F10E011950195110953
:102460003FEF8316930629F4B7018EE290E00E94B5
:102470009A17C814D9044CF08F8598898815990546
:1024800024F4ED85FE85818101C080E3F1E08F1A9F
:1024900091082D853E852F5F3F4F3E872D87801603
:1024A00091062CF0B70190E00E949A17D9CFC8147A
:1024B000D90441F49A81963320F4953319F43C857C
:1024C00034FF81E3B70190E04EC08A81813319F077
:1024D0009C859F7E9C87B70190E00E949A171111FE
:1024E00005C094FC18C085E690E017C0B7018EE2E5
:1024F00090E00E949A171E5F82E001E0080FF3014E
:10250000E80FF11D8081B70190E00E949A17802F9B
:102510000113F3CFE6CF85E490E0B7010E949A174C
:10252000D7FC06C0C114D10441F4EC85E4FF05C01A
:10253000D194C194D1088DE201C08BE2B70190E043
:102540000E949A1780E32AE0C216D1042CF08F5F14
:10255000FAE0CF1AD108F7CFB70190E00E949A179E
:10256000B701C601C0960E949A1754C1833631F054
:10257000833779F0833509F056C020C0560132E028
:10258000A30EB11CF6018081898301E010E0630194
:1025900012C05601F2E0AF0EB11CF601C080D1802E
:1025A00096FE03C0612F70E002C06FEF7FEFC6019F
:1025B0000E9475178C01F92DFF7714C0560122E097
:1025C000A20EB11CF601C080D18096FE03C0612F1F
:1025D00070E002C06FEF7FEFC6010E9441178C01CF
:1025E000F92DF0689F2EF3FD1AC0852D90E0081795
:1025F0001907A8F4B70180E290E00E949A175A9454
:10260000F4CFF60197FC859197FE81916F01B70198
:1026100090E00E949A1751105A9401501109011527
:10262000110579F7F7C0843611F0893661F5560146
:1026300097FE09C024E0A20EB11CF60160817181F1
:10264000828193810AC0F2E0AF0EB11CF601608175
:102650007181072E000C880B990BF92DFF769F2EA8
:1026600097FF09C090958095709561957F4F8F4F2A
:102670009F4FF0689F2E2AE030E0A3010E9441188E
:10268000C82EC6183FC0092D853721F40F7E2AE0D9
:1026900030E01DC0097F8F3691F018F4883559F06D
:1026A000C3C0803719F0883711F0BEC0006104FF45
:1026B00009C0046007C094FE08C0066006C028E098
:1026C00030E005C020E130E002C020E132E05601F8
:1026D00007FF09C084E0A80EB11CF601608171817A
:1026E0008281938108C0F2E0AF0EB11CF6016081D7
:1026F000718180E090E0A3010E944118C82EC618A5
:102700000F77902E96FE0BC0092D0E7FC11650F448
:1027100094FE0AC092FC08C0092D0E7E05C0DC2C78
:10272000092D03C0DC2C01C0D12E04FF0DC0FE0119
:10273000EC0DF11D8081803311F4097E09C002FF88
:1027400006C0D394D39404C0802F867809F0D39424
:1027500003FD11C000FF06C01C2DD51480F4150D1B
:102760001D190DC0D51458F4B70180E290E00E9405
:102770009A17D394F7CFD51410F45D1801C0512CDB
:1027800004FF10C0B70180E390E00E949A1702FF97
:1027900017C001FD03C088E790E002C088E590E023
:1027A000B7010CC0802F867859F001FF02C08BE280
:1027B00001C080E207FD8DE2B70190E00E949A1708
:1027C000C11638F4B70180E390E00E949A171150C7
:1027D000F7CFCA94F301EC0DF11D8081B70190E0B1
:1027E0000E949A17C110F5CF15C0F4E0F51560F5F9
:1027F00084E0581A93FE1FC0011127C02C8523FFC7
:102800002AC008E610E0392D3071932EF80184912A
:10281000811124C0552009F4E4CCB70180E290E096
:102820000E949A175A94F6CFF7018681978126C0A5
:102830008FEF9FEF23C0B70180E290E00E949A17CC
:102840005A945110F8CFD8CF512CB701802F90E077
:102850000E949A17D3CF0CE610E0D5CF911080528A
:10286000B70190E00E949A170F5F1F4FCFCF23E070
:10287000251510F483E0BDCF512CC0CF6096E2E166
:102880000C945E142F923F924F925F926F927F92C0
:102890008F929F92AF92BF92CF92DF92EF92FF9270
:1028A0000F931F93CF93DF93CDB7DEB7CA1BDB0B1C
:1028B0000FB6F894DEBF0FBECDBF09942A883988C1
:1028C00048885F846E847D848C849B84AA84B984C8
:1028D000C884DF80EE80FD800C811B81AA81B981D4
:1028E000CE0FD11D0FB6F894DEBF0FBECDBFED01E8
:1028F00008950F931F93CF93DF938230910510F4C7
:1029000082E090E0E0917405F091750520E030E000
:10291000A0E0B0E0309719F140815181028113812C
:1029200048175907C8F08417950769F4109731F0D4
:1029300012960C93129713961C9327C0009374055C
:102940001093750522C02115310519F04217530760
:1029500018F49A01BD01EF01DF01F801DBCF211569
:102960003105F9F0281B390B2430310580F48A81B8
:102970009B816115710521F0FB019383828304C063
:102980009093750580937405FE01329644C0FE0154
:10299000E20FF31F819391932250310939832883E9
:1029A0003AC02091720530917305232B41F4209198
:1029B0000201309103013093730520937205209139
:1029C0000001309101012115310541F42DB73EB7C9
:1029D0004091040150910501241B350BE0917205D3
:1029E000F0917305E217F307A0F42E1B3F0B281795
:1029F000390778F0AC014E5F5F4F2417350748F078
:102A00004E0F5F1F5093730540937205819391930E
:102A100002C0E0E0F0E0CF01DF91CF911F910F9174
:102A20000895CF93DF93009709F481C0FC0132979A
:102A300013821282A0917405B0917505109781F4EC
:102A400020813181820F931F20917205309173058F
:102A50002817390751F5F0937305E093720567C0A5
:102A6000ED0120E030E0CE17DF0740F44A815B81C2
:102A70009E0141155105F1F0EA01F5CFD383C283E0
:102A800040815181840F951FC817D90759F4888157
:102A90009981840F951F0296918380838A819B81FF
:102AA000938382832115310529F4F0937505E09312
:102AB00074053DC0E901FB83EA8349915991C40F34
:102AC000D51FEC17FD0761F480819181840F951F5C
:102AD0000296E90199838883828193819B838A830B
:102AE000E0E0F0E012968D919C911397009719F019
:102AF000FD01DC01F7CF8D919C9111979D012E5F17
:102B00003F4F820F931F2091720530917305281754
:102B1000390769F4309729F41092750510927405FD
:102B200002C013821282B0937305A0937205DF91E5
:102B3000CF910895A0E0B0E0E0EAF5E10C944614EE
:102B4000EC01009721F4CB010E947914B4C0FC0180
:102B5000E60FF71F9C0122503109E217F30708F432
:102B6000A8C0D9010D911C91119706171707B0F055
:102B70000530110508F49BC0C80104978617970714
:102B800008F495C002501109061B170B019311930D
:102B90006D937C93CF010E94111589C05B01A01A2F
:102BA000B10A4C01800E911EA0917405B09175057B
:102BB000612C712CE12CF12C109709F446C08D91F9
:102BC0009C911197A815B905B1F56C0142E0C40EAE
:102BD000D11CCA14DB0478F14C018A189B086401EB
:102BE00042E0C40ED11C1296BC9012971396AC9181
:102BF000B5E0CB16D10440F0B282A38391828082EB
:102C0000D9016D937C9309C00E5F1F4F800F911FF8
:102C1000F90191838083EB2DFA2FE114F10431F057
:102C2000D7011396FC93EE93129741C0F09375056C
:102C3000E09374053CC06816790608F43C017D01F8
:102C400012960D90BC91A02DB7CF809172059091F6
:102C5000730588169906E1F466167706C8F4809124
:102C6000000190910101009741F48DB79EB740910A
:102C7000040150910501841B950BE817F907C8F46E
:102C8000F0937305E0937205F901718360830FC0BF
:102C9000CB010E9479147C01009759F0A801BE0174
:102CA0000E944C17CE010E941115C70104C0CE012D
:102CB00002C080E090E0CDB7DEB7EEE00C94621485
:102CC000283008F027E03327DA01990F311D87FDFE
:102CD000916000966105710539F432602E5F3D9375
:102CE00030E32A95E1F708959F3F30F08038710571
:102CF000610509F03C5F3C5F3D93913008F08068CE
:102D0000911DDF93CF931F930F93FF92EF92192F93
:102D1000987F9695E92F96959695E90FFF27E653AC
:102D2000FF4F99273327EE24FF24A701E7010590E1
:102D30000894079428F4360FE71EF81E491F511D0A
:102D4000660F771F881F991F0694A1F705900794B7
:102D500028F4E70EF81E491F561FC11D770F881F64
:102D6000991F661F0694A1F70590079428F4F80EA2
:102D7000491F561FC71FD11D880F991F661F771F38
:102D80000694A1F70590079420F4490F561FC71F1A
:102D9000D81F990F661F771F881F0694A9F7849183
:102DA0001095177041F0D695C79557954795F794AC
:102DB000E7941A95C1F7E0E7F0E068941590159153
:102DC00035916591959105907FE27395E118F10A2F
:102DD000430B560BC90BD009C0F7E10CF11E431F82
:102DE000561FC91FD01D7EF4703311F48A95E6CFAB
:102DF000E894015030F0080F0AF40027021708F495
:102E0000202F2395022F7A3328F079E37D932A959A
:102E1000E9F710C07D932A9589F6069497956795F2
:102E2000379517951794E118F10A430B560BC90B08
:102E3000D00998F023957E9173957A3308F070E36A
:102E40007C932013B8F77E9170617D9330F0839569
:102E500071E37D9370E32A95E1F71124EF90FF90E1
:102E60000F911F91CF91DF91992787FD909508953C
:102E700091110C944C1B803219F089508550C8F781
:102E80000895FC010590615070400110D8F78095BD
:102E900090958E0F9F1F0895FB01DC0102C00190E9
:102EA0000D9241505040D8F708956817790768F49B
:102EB000FB01DC01E40FF51FA40FB51F02C0029057
:102EC0000E9241505040D8F708950C944C17FB01D6
:102ED000DC014150504030F08D910190801919F47F
:102EE0000020B9F7881B990B0895FC0161507040D0
:102EF00001900110D8F7809590958E0F9F1F08952F
:102F0000FB0151915523A9F0BF01DC014D914517FB
:102F10004111E1F759F4CD010190002049F04D91A4
:102F200040154111C9F3FB014111EFCF81E090E061
:102F3000019708950F931F93CF93DF93FB01238194
:102F400021FD03C08FEF9FEF2CC022FF16C04681EA
:102F50005781248135814217530744F4A081B18100
:102F60009D012F5F3F4F318320838C9326813781D2
:102F70002F5F3F4F3783268314C08B01EC01FB0189
:102F80000084F185E02D0995892BE1F6D80116968C
:102F90008D919C911797019617969C938E931697F7
:102FA000CE01DF91CF911F910F910895AEE0B0E077
:102FB000ECEDF7E10C9450140D891E898F89988DE2
:102FC00026E02C831A83098397FF02C080E090E8F3
:102FD00001979E838D83AE01455E5F4F698D7A8D2B
:102FE000CE0101960E94C5104D815E8157FD0AC039
:102FF0002F813885421753070CF49A01F801E20F2C
:10300000F31F10822E96E4E00C946C14AEE0B0E056
:10301000ECE0F8E10C9450140D891E8986E08C8355
:103020001A8309838FEF9FE79E838D83AE01475EEE
:103030005F4F6F89788DCE0101960E94C510EF8198
:10304000F885E00FF11F10822E96E4E00C946C14CA
:10305000AEE0B0E0EEE2F8E10C94521485E08C832F
:103060008B899C899A838983AE01495E5F4F6D8904
:103070007E89CE0101960E943B1A2E96E2E00C94C6
:103080006E14FA01AA27283051F1203181F1E89419
:103090006F936E7F6E5F7F4F8F4F9F4FAF4FB1E04B
:1030A0003ED0B4E03CD0670F781F891F9A1FA11D46
:1030B000680F791F8A1F911DA11D6A0F711D811D47
:1030C000911DA11D20D009F468943F912AE0269F0C
:1030D00011243019305D3193DEF6CF010895462F6B
:1030E0004770405D4193B3E00FD0C9F7F6CF462F4C
:1030F0004F70405D4A3318F0495D31FD40524193B5
:1031000002D0A9F7EACFB4E0A69597958795779571
:103110006795BA95C9F700976105710508959B01F8
:10312000AC010A2E06945795479537952795BA9581
:10313000C9F7620F731F841F951FA01D089520FDFE
:1031400009C0FC0123FD05C022FF02C07383628316
:1031500051834083089544FD17C046FD17C0AB015D
:10316000BC01DA01FB01AA0FBB1FEE1FFF1F109469
:10317000D1F74A0F5B1F6E1F7F1FCB01BA01660F8D
:10318000771F881F991F09C033E001C034E0660F24
:10319000771F881F991F3150D1F7620F711D811D54
:1031A000911D08950F931F93CF93DF938C01C80156
:1031B0000E945A1BEC0197FD08C00E943817892B0A
:1031C000B1F7B801CE010E94981BCE01DF91CF91DB
:1031D0001F910F9108958F929F92AF92BF92EF929D
:1031E000FF920F931F93CF93DF938C01D62F7A0119
:1031F000B22E0E945A1B9C0133272B32310531F02D
:103200002D32310561F48B2D8068B82ED15011F428
:1032100080E068C0C8010E945A1B97FDF9CFCB2DF2
:10322000CD7F2B2D207309F58033F9F4AA24AA94BD
:10323000AD0E09F443C0C8010E945A1B97FD3EC061
:103240009C012F7D33272835310549F4C264D250C3
:10325000A9F1C8010E945A1B97FF07C02FC0B6FEF4
:1032600002C0C26001C0C261DA2D812C912C5401D0
:1032700020ED280F283080F0C4FF04C0B8010E9460
:10328000981B19C02A3040F0C6FFF8CF2F7D3FEEC3
:10329000320F363098F727504C2FC501B4010E94E9
:1032A000AB184B015C01C260D15059F0C8010E94BB
:1032B0005A1B97FFDDCFC1FD04C0AACF812C912CF2
:1032C0005401C7FF08C0B094A09490948094811CCE
:1032D000911CA11CB11C2C2FB501A401C7010E9497
:1032E0009F1881E0DF91CF911F910F91FF90EF9098
:1032F000BF90AF909F908F900895A0E2B0E0E3E878
:10330000F9E10C9445145C01962E7A01F9018E01C5
:103310000F5F1F4F680180E2D8011D928A95E9F77F
:10332000D50113968C9080E090E0612C712C30E0F8
:1033300061E070E083FC259183FE21918F01522E84
:10334000211103C080E090E092C02E3511F4009767
:1033500051F1432F50E0481759073CF42D3559F1EE
:103360002D3219F4772009F103C0772009F46AC0DF
:10337000452D469546954695D601A40FB11D452D80
:1033800047708B0102C0000F111F4A95E2F7A80198
:103390005C91452B4C93651459F0561410F45394DA
:1033A000E7CF5A94E5CF31E004C07724739401C08D
:1033B000712C0196BFCF772019F08E8180628E83A9
:1033C000311103C08824839417C0F6019E012F5D3C
:1033D0003F4F8081809581932E173F07D1F7F2CF21
:1033E000E114F10429F0D7018C93F70131967F01A4
:1033F0009A94812C9920F9F0C5010E945A1B97FDDF
:1034000018C0FC01FF2723E0F595E7952A95E1F721
:10341000EC0DFD1D208130E0AC014770552702C046
:10342000359527954A95E2F720FDDACFB5010E9440
:10343000981B811087CFE114F10411F0D7011C9281
:10344000C80115C0422F469546954695D601A40F52
:10345000B11D422F47708B0102C0000F111F4A950A
:10346000E2F7A8015C91452B4C93622EA2CFA09667
:10347000EFE00C946114A0E0B0E0E1E4FAE10C9418
:1034800045146C01EB015A01FC0117821682512C84
:10349000F601E380FE01E3FC8591E3FE8191182FA4
:1034A000EF01882309F4EEC090E00E943817892BC1
:1034B00021F0C6010E94D218EBCF153241F4FE0173
:1034C000E3FC1591E3FE1191EF01153281F4C60181
:1034D0000E945A1B97FDD4C0412F50E09C01332716
:1034E00024173507A9F2B6010E94981BCBC01A32E7
:1034F00039F4E3FC1591E3FE1191EF0101E001C005
:1035000000E0F12C20ED210F2A3080F402606F2DB5
:1035100070E080E090E040E20E94AB18F62EFE01E1
:10352000E3FC1591E3FE1191EF01ECCF01FF03C025
:10353000F11003C0A7C0FF24FA94183619F01C3606
:1035400051F010C0FE01E3FC1591E3FE1191EF0173
:10355000183641F408600460FE01E3FC1591E3FEB7
:103560001191EF01112309F48DC0612F70E08AE6FB
:1035700091E00E944F1B892B09F484C000FD07C015
:10358000F50180809180C50102965C0102C0812C0A
:10359000912C1E3651F4F6014681578160E070E0AF
:1035A000202FC4010E949F1873CF1336A9F401FD88
:1035B00002C0FF24F394C6010E945A1B97FD60C00D
:1035C0008114910429F0F4018083C40101964C0117
:1035D000FA94F110F0CF50C01B3559F49E01A401AC
:1035E0006F2DC6010E947D19EC01892B09F044C0A2
:1035F0003EC0C6010E94D21897FD42C01F3661F13D
:1036000028F4143639F1193651F128C0133771F006
:10361000153701F123C08114910429F0F40160826F
:10362000C40101964C01FA94FF2071F0C6010E947A
:103630005A1B3C0197FD08C00E943817892B59F38B
:10364000B601C3010E94981B81149104A9F0F401F2
:10365000108212C0006203C0006101C00064202F0C
:10366000A4016F2DC6010E94EB18811105C0F6015F
:103670008381807329F406C000FD0ACF539408CFDC
:10368000552019F0852D90E002C08FEF9FEFCDB748
:10369000DEB7EFE00C946114992788270895FC01A8
:1036A0000590061621F00020D9F7C0010895319742
:1036B000CF010895CF93DF93EC012B8120FF33C01E
:1036C00026FF0AC02F7B2B838E819F8101969F83CB
:1036D0008E838A8190E029C022FF0FC0E881F981A2
:1036E0008081082E000C990B009719F420622B831F
:1036F0001AC03196F983E8830EC0EA85FB850995E7
:1037000097FF09C02B81019611F080E201C080E192
:10371000822B8B8308C02E813F812F5F3F4F3F83D9
:103720002E83992702C08FEF9FEFDF91CF910895ED
:10373000FB01238120FF12C026FD10C08F3F3FEF09
:10374000930761F082832F7D206423832681378154
:103750002150310937832683992708958FEF9FEFF2
:063760000895F894FFCF6C
:10376600000076052000791411159A15556E6974B6
:10377600202564006D6F6973747572650074656DDC
:1037860070657261747572650032334544384D3820
:103796004F4F4C4232544B483000474554202F611E
:1037A6007070732F7468696E67687474702F7365B0
:1037B6006E645F726571756573743F6170695F6B86
:1037C60065793D2573266D6573736167653D257360
:1037D600000D0A4F4B0D0A0041542B4349504D4FE3
:1037E60044453D25640041542B4349504D55583DB1
:1037F600256400415445300041540041542B43494F
:1038060050434C4F53453D310041542B43574D4F88
:1038160044453D25640041542B43574A41503D22BF
:103826002573222C22257322000D0A57494649206A
:10383600434F4E4E45435445440D0A002B43574AC9
:1038460041503A31002B43574A41503A32002B43FC
:10385600574A41503A33002B43574A41503A3400B5
:1038660041542B43495053544154555300535441EA
:103876005455533A32005354415455533A33005336
:1038860054415455533A34005354415455533A35E0
:10389600004349504D55583A300041542B43495046
:1038A6004D55583F0041542B4349505354415254AF
:1038B6003D22544350222C222573222C257300418D
:1038C600542B43495053544152543D222564222CD3
:1038D60022544350222C222573222C257300434F59
:1038E6004E4E4543540D0A00393837313338393393
:1038F600383935004A616E697468204469616C6FB5
:1039060067203447003830006170692E7468696E2C
:1039160067737065616B2E636F6D0041542B43496D
:103926005053454E443D2564000D0A4F4B0D0A3E4B
:10393600000D0A53454E44204F4B0D0A0041542BAF
:103946004349505345525645523D222573222C2257
:10395600257322007525303478006E756C6C006610
:10396600616C736500747275650025312E3135679B
:1039760000256C670025312E3137670025692E2515
:0A398600692E256900EFBBBF0000A9
:00000001FF
