:100000000C94BB000C94D8000C94D8000C94D8002D
:100010000C94D8000C94D8000C94D8000C94D80000
:100020000C94D8000C94D8000C94D8000C94D800F0
:100030000C94D8000C94D8000C94D8000C94D800E0
:100040000C94D8000C94D8000C9409060C94D80099
:100050000C94D8000C94D8000C94D8000C94D800C0
:100060000C94D8000C94D8006E616E00696E660026
:1000700000407A10F35A00A0724E18090010A5D45F
:10008000E80000E87648170000E40B54020000CABC
:100090009A3B000000E1F505000080969800000002
:1000A00040420F000000A086010000001027000061
:1000B0000000E803000000006400000000000A00E7
:1000C000000000000100000000002C76D888DC67EA
:1000D0004F0823DFC1DFAE59E1B1B796E5E3E45342
:1000E000C63AE651997696E8E6C28426EB898C9B5F
:1000F00062ED407C6FFCEFBC9C9F40F2BAA56FA5FF
:10010000F490055A2AF75C936B6CF9676DC11BFC80
:10011000E0E40D47FEF520E6B500D0ED902E03009B
:10012000943577050080841E080000204E0A0000E8
:1001300000C80C333333330F986E12831141EF8DA7
:100140002114893BE65516CFFEE6DB18D1844B38E7
:100150001BF77C1D901DA4BBE424203284725E2218
:100160008100C9F124ECA1E53D276364696E6F70DD
:10017000737578585B0011241FBECFEFD8E0DEBF47
:10018000CDBF13E0A0E0B1E0E2E0FAE302C00590E9
:100190000D92A838B107D9F725E0A8E8B3E001C06F
:1001A0001D92A539B207E1F70E94200E0C94FF1CA6
:1001B0000C940000ECE7F0E0808180648083EAE743
:1001C000F0E08081876880830895539A08959BB1F9
:1001D00088E098279BB92FEF39E698E1215030400D
:1001E0009040E1F700C000009BB189278BB90895CA
:1001F000EF92FF920F931F93CF93DF93CDB7DEB7AC
:100200002A970FB6F894DEBF0FBECDBF0E948001C3
:100210000E94E80D8C011F9281E08F9386E191E0AE
:100220009F938F931F928AE08F93CE0101967C015A
:100230009F938F930E942419B701C8010E94F40D67
:100240007C012091F4033091F5034091F603509125
:10025000F7036EE171E00E94BA0D20919004309195
:100260009104409192045091930467E271E0C701B8
:100270000E94BA0D20E030E042E350E06CE574E00B
:10028000C8010E94370DC8010E94EE0C0FB6F89409
:10029000DEBF0FBECDBF2A960FB6F894DEBF0FBEED
:1002A000CDBFDF91CF911F910F91FF90EF900895F7
:1002B000109290041092F40382E3E4E9F4E0DF0189
:1002C000982F1D929A95E9F7ECE5F4E0DF011D9275
:1002D0008A95E9F784E6E0E9F3E0DF01982F1D92C3
:1002E0009A95E9F7E6ECF4E0DF01982F1D929A95D4
:1002F000E9F7E8EFF3E0DF011D928A95E9F7089549
:100300008BE794E1AAE4B2E4809390049093910483
:10031000A0939204B093930485E89BEEA1E2B1E42C
:100320008093F4039093F503A093F603B093F7033F
:1003300008950E94F8008CE594E09F938F9383E3E7
:1003400091E09F938F9384E491E09F938F9388EF44
:1003500093E09F938F930E94541988EF93E00E943B
:100360006B0580E993E00E94E7052FEF83ED90E3B2
:10037000215080409040E1F700C000008DB79EB74B
:1003800008960FB6F8949EBF0FBE8DBF08950F93C9
:100390001F93CF93DF9300D0CDB7DEB78BE791E00B
:1003A0009F938F938CE891E09F938F9388EF93E0D6
:1003B0009F938F930E94541988EF93E00E946B05DE
:1003C00088EF93E00E94E7052FEF89E698E121503E
:1003D00080409040E1F700C0000068EB71E088EFDA
:1003E00093E00E94CE188C010F900F900F900F9009
:1003F0000F900F90892B99F10E94E700B801695F77
:100400007F4F41E050E084E994E00E94B418CE01AF
:1004100001969F938F938BE191E09F938F9384E953
:1004200094E09F938F930E94761989819A810F900F
:100430000F900F900F900F900F908130910539F42D
:1004400081E090E090938F0480938E0406C0892B06
:1004500021F410928F0410928E040E946F0F0F905F
:100460000F90DF91CF911F910F9108952F923F929E
:100470004F925F926F927F928F929F92AF92BF92B4
:10048000CF92DF92EF92FF920F931F93CF93DF9360
:10049000CDB7DEB72C970FB6F894DEBF0FBECDBF39
:1004A0009E838D832DB73EB73C872B87FC0101903F
:1004B0000020E9F731975F01A81AB90ABB24A5010A
:1004C0004150510958874F838DB79EB78A199B09B0
:1004D0000FB6F8949EBF0FBE8DBFADB7BEB71196D5
:1004E0004D018091880390918903A0918A03B09176
:1004F0008B03803F984DAF4FBF4F61F4109288033C
:100500001092890310928A0310928B0382E08093E9
:100510008F059BC019821A821B821C822F8038840F
:10052000280C391C94012F5F3F4F3A87298780910F
:100530008F05843011F410928F05EBE2F5E0019005
:100540000020E9F73197CF018B5295406C01E12CE7
:10055000F12CC114D104E104F10409F451C08FEC71
:1005600097E00197F1F700C0000029813A814B81A3
:100570005C812F5F3F4F4F4F5F4F29833A834B83FF
:100580005C83EBE2F5E001900020E9F73197CF01C1
:100590008B529540A0E0B0E0C816D906EA06FB06EB
:1005A00079F50BE215E0412C512C32014F81588531
:1005B00069857A85C4010E949418D8018D918D01B6
:1005C000F1018083A5016D817E81C4010E94A6187E
:1005D000892B61F4109288031092890310928A0388
:1005E00010928B0381E080938F052FC0FFEF4F1A8D
:1005F0005F0A6F0A7F0A4C145D046E047F04B1F633
:100600008FEC97E00197F1F700C0000029813A8153
:100610004B815C812F5F3F4F4F4F5F4F29833A8360
:100620004B835C838091880390918903A0918A0316
:10063000B0918B03805F984DAF4FBF4F281739079C
:100640004A075B0708F473CF59CF4B855C850FB61B
:10065000F8945EBF0FBE4DBF2C960FB6F894DEBF68
:100660000FBECDBFDF91CF911F910F91FF90EF9003
:10067000DF90CF90BF90AF909F908F907F906F90C2
:100680005F904F903F902F90089584E6EBE2F5E065
:10069000DF011D928A95E9F710928F0310928E0365
:1006A00010928D0310928C030895CF93DF93EC0189
:1006B00084E080938F05CE010E94360280918F05E1
:1006C0008823C9F3DF91CF9108950E94550381E0FB
:1006D00090918F05923009F480E008950F931F9355
:1006E000CF93DF938C01EB010E944503C8010E9468
:1006F000770687E392E00E947706CE010E946503A9
:10070000DF91CF911F910F9108950F931F93CF9376
:10071000DF93CDB7DEB764970FB6F894DEBF0FBE98
:10072000CDBF8E010F5F1F4F94E1F80111929A9592
:10073000E9F71F928F9386ED91E09F938F931F931C
:100740000F930E9454191C8A6FEC71E0C8010E943B
:100750006E030F900F900F900F900F900F90649674
:100760000FB6F894DEBF0FBECDBFDF91CF911F91C2
:100770000F9108950F931F93CF93DF93CDB7DEB7FB
:1007800064970FB6F894DEBF0FBECDBF8E010F5F2A
:100790001F4F94E1F80111929A95E9F71F928F93F8
:1007A00084EE91E09F938F931F930F930E945419AF
:1007B0001C8A6FEC71E0C8010E946E030F900F90CD
:1007C0000F900F900F900F9064960FB6F894DEBFC5
:1007D0000FBECDBFDF91CF911F910F910895CF93A1
:1007E000C5E06FEC71E081EF91E00E946E03811132
:1007F0000AC06FEC71E086EF91E00E946E038111F8
:1008000002C0C15071F7CF9108950F931F93CF93FA
:10081000DF93CDB7DEB764970FB6F894DEBF0FBE97
:10082000CDBF8E010F5F1F4F94E1F80111929A9591
:10083000E9F71F928F9387E092E09F938F931F9326
:100840000F930E9454191C8A6FEC71E0C8010E943A
:100850006E030F900F900F900F900F900F90649673
:100860000FB6F894DEBF0FBECDBFDF91CF911F91C1
:100870000F9108950F931F93CF93DF93CDB7DEB7FA
:10088000EC970FB6F894DEBF0FBECDBF8E010F5FA1
:100890001F4F2CE3F80111922A95E9F77F936F938C
:1008A0009F938F9384E192E09F938F931F930F9375
:1008B0000E9454191CAE67E272E0C8010E946E03E8
:1008C0000FB6F894DEBF0FBECDBF811122C06AE320
:1008D00072E08BE295E00E94CE18892BE1F463E48C
:1008E00072E08BE295E00E94CE18892BB1F46CE4A3
:1008F00072E08BE295E00E94CE18892B81F465E5C9
:1009000072E08BE295E00E94CE18892B51F485E0CD
:1009100009C080E007C081E005C082E003C083E039
:1009200001C084E0EC960FB6F894DEBF0FBECDBFD9
:10093000DF91CF911F910F9108956FEC71E08EE5DB
:1009400092E00E946E036BE672E08BE295E00E94FB
:10095000CE18892BD1F464E772E08BE295E00E9417
:10096000CE18892BA1F46DE772E08BE295E00E942E
:10097000CE18892B71F466E872E08BE295E00E9454
:10098000CE18892B41F484E0089580E0089581E039
:10099000089582E0089583E00895DF92EF92FF9238
:1009A0000F931F93CF93DF93CDB7DEB7EC970FB6BE
:1009B000F894DEBF0FBECDBFD82E162F072FF42E12
:1009C000E52EFE0131968CE3DF011D928A95E9F751
:1009D0006FE872E088E992E00E946E038823A1F03C
:1009E000EF92FF920F931F9383EA92E09F938F936E
:1009F000CE0101969F938F930E9454190FB6F894DD
:100A0000DEBF0FBECDBF15C0EF92FF920F931F93B5
:100A10001F92DF928DEB92E09F938F93CE01019610
:100A20009F938F930E9454190FB6F894DEBF0FBEA8
:100A3000CDBF6CED72E0CE0101960E946E03811174
:100A400006C080918F05823021F085E003C081E0EF
:100A500001C082E0EC960FB6F894DEBF0FBECDBFAA
:100A6000DF91CF911F910F91FF90EF90DF9008954C
:100A700083E00E94050480E00E94BA0380E00E94A7
:100A800085030E949D04833031F466EE72E082EFAC
:100A900092E00E943A0443E053E066E073E080E0B5
:100AA0000E94CD0408950E949D0480932A058330FE
:100AB00031F466EE72E082EF92E00E943A04809197
:100AC0002A05823039F443E053E066E073E080E0C9
:100AD0000E94CD040895EF92FF920F931F93CF933E
:100AE000DF93CDB7DEB764970FB6F894DEBF0FBEC5
:100AF000CDBF8C01CE0101967C0184E1F7011192FA
:100B00008A95E9F7F80101900020E9F7CF01801BF1
:100B1000910B01969F938F9389E193E09F938F931D
:100B2000FF92EF920E9454191C8A67E273E0C7019A
:100B30000E946E036FE273E0C8010E946E030F9083
:100B40000F900F900F900F900F90811106C0809121
:100B50008F05823021F085E003C081E001C082E092
:100B600064960FB6F894DEBF0FBECDBFDF91CF9174
:100B70001F910F91FF90EF90089580918E039091B7
:100B80008F0320918C0330918D03821B930B08956A
:100B900020918C0330918D0380918E0390918F036F
:100BA0002817390784F480918C0390918D039C0160
:100BB0002F5F3F4F30938D0320938C03FC01E55D45
:100BC000FA4F808108950E94450380E008950F93B5
:100BD0001F93CF93DF932FEF30E742E02150304057
:100BE0004040E1F700C00000C82FD92F00E010E01E
:100BF00005C00F5F1F4F0E94C80589930E94BD0565
:100C000018161906B4F3C801DF91CF911F910F9107
:100C100008951F920F920FB60F9211242F938F9366
:100C20009F93EF93FF932FB7F894E0918E03F09189
:100C30008F038091C600E55DFA4F808380918E031B
:100C400090918F03019690938F0380938E038091F0
:100C50008E0390918F038436910541F410928F0397
:100C600010928E0310928D0310928C032FBFFF9170
:100C7000EF919F918F912F910F900FBE0F901F902A
:100C80001895E0ECF0E0208122602083E1ECF0E0B8
:100C9000208128692083E2ECF0E020812660208317
:100CA0000E94931020E030E040E051E40E944A119D
:100CB0009B01AC0160E074E284EF9AE40E94EB0FC8
:100CC00020E030E040E85FE30E94790F0E94B71116
:100CD0000E945D106093C4007093C50008958093D6
:100CE000C600E0ECF0E0808185FFFDCF0895CF9352
:100CF000DF93EC018881882331F021960E946F06F2
:100D000089918111FBCFDF91CF910895CF93DF932C
:100D1000DC01892BD1F02D913C91119721153105E2
:100D2000A1F014968D919C911597E901C80FD91FD8
:100D3000FE0101900020E9F73197EC1BFD0BE80F55
:100D4000F91F1596FC93EE931497DF91CF910895B8
:100D5000EF92FF920F931F93CF93DF930097B9F019
:100D6000DB01EC01FC0101900020E9F78F01081B79
:100D7000190BED91FC91C80109957C01009751F088
:100D8000A801BE010E948B188E2D9F2D04C080E00B
:100D900090E001C09F2DDF91CF911F910F91FF90A7
:100DA000EF900895EF92FF920F931F93CF93DF93ED
:100DB000FC01892B09F473C080819181009709F4AB
:100DC00079C0228133812115310531F0448155816B
:100DD0004217530708F066C077230CF466C04481BD
:100DE0005581DA0111966A0F7B1F2617370718F015
:100DF000840F951F5FC020853185232B09F058C0D3
:100E0000611520E4720728F077233CF480E090E03D
:100E100051C08B01000F111F02C00FEF1FE7EF0140
:100E20000088F189E02D309789F0B80109957C019F
:100E3000892B61F5EE85FF858881998109951B8253
:100E40001A821982188280E090E034C0EC85FD851A
:100E5000C80109957C01009761F4EE85FF858881C2
:100E6000998109951B821A821982188280E090E08C
:100E700021C04C815D814F5F5F4F688179810E9405
:100E80008B18EE85FF858881998109951B830A83DC
:100E9000F982E8828C819D818E0D9F1D0BC080E0C0
:100EA00090E008C080E090E005C080E090E002C0E3
:100EB00080E090E0DF91CF911F910F91FF90EF9034
:100EC0000895DC01ED91FC9182E190E00995009795
:100ED00029F022E1FC0111922A95E9F708953F9249
:100EE0004F925F926F927F928F929F92AF92BF923A
:100EF000CF92DF92EF92FF920F931F93CF93DF93E6
:100F00006115710509F4DAC0AB01EC01892B21F000
:100F10009881911112C0DEC063E070E0CA010E94A6
:100F2000D206009709F4CDC022E232E2FC013183FF
:100F30002083128281E090E0D8C07E01FFEFEF1A9B
:100F4000FF0A00E010E001C07F019E3038F49C30C1
:100F500048F428EF290F233040F404C0923211F0F6
:100F60009C3519F40F5F1F4F04C0903210F40B5FD3
:100F70001F4FF70191919111E7CFEC1AFD0AE00E96
:100F8000F11EB7016D5F7F4FCA010E94D2066C014E
:100F9000892B09F499C0012B81F412E2F601119317
:100FA000CF01A701BE010E948B18F601EE0DFF1DB7
:100FB0001183128281E090E098C082E2F601819371
:100FC0008F019881992309F470C00F2EFCE59F2EA4
:100FD000F02D0F2EF6E63F2EF02D0F2EF2E5AF2E60
:100FE000F3E0BF2EF02D0F2EF2E24F2EF02D0F2E3C
:100FF000F2E75F2EF02D0F2EF4E76F2EF02D0F2E5F
:10100000FEE67F2EF02D0F2EF2E68F2EF02D903281
:1010100040F0923231F09C3521F0F8019083980134
:101020003DC098012F5F3F4FF801908288818C303E
:10103000C1F038F48930F1F08A30B1F08830E9F449
:101040000DC0823241F08C3519F08D30B1F40FC0F3
:10105000F801918223C0F801418220C0F801818209
:101060001DC0F80131821AC0F801718217C0F80161
:10107000518214C0F801618211C01F928F93BF92F8
:10108000AF923F932F930E94541998012B5F3F4FCB
:101090000F900F900F900F900F900F902196890155
:1010A0000F5F1F4F98819111B2CFF601EE0DFF1D1A
:1010B00082E28183128281E090E017C080E090E0BC
:1010C00014C080E090E011C080E090E00EC080E0AD
:1010D00090E00BC063E070E0CA010E94D2066C0190
:1010E000892BA9F3E12CF12C58CFDF91CF911F91DF
:1010F0000F91FF90EF90DF90CF90BF90AF909F90B7
:101100008F907F906F905F904F903F900895611502
:10111000710509F445C0009709F445C068177907BF
:1011200009F444C0DC011496ED91FC9115973097B9
:1011300061F415967C936E931497FB01738362831D
:101140001182108281E090E00895A281B38110970E
:1011500089F011967C936E93FB01B383A283DC012B
:101160001496ED91FC9115977383628381E090E072
:101170000895F9012081318121153105D1F771835D
:101180006083DB011396FC93EE931297DC011496B7
:10119000ED91FC9115977383628381E090E008954F
:1011A00080E090E0089580E090E0089580E090E095
:1011B0000895AF92BF92CF92DF92EF92FF920F937A
:1011C0001F93CF93DF930097B9F161157105B9F1C2
:1011D00041155105B9F184179507B9F1F801790165
:1011E000EA018B016C01EF2B29F0AE80BF8068947F
:1011F000B1F80BC0B901C8010E94A8068C01892B67
:1012000039F1AE80BF80E894B1F88E819F8191FD65
:101210000AC088899989009731F0D7011296ED911B
:10122000FC9113970995198B088BBF82AE82BE0182
:10123000C6010E9487080EC080E090E00BC080E0ED
:1012400090E008C080E090E005C080E090E002C03F
:1012500080E090E0DF91CF911F910F91FF90EF9090
:10126000DF90CF90BF90AF9008952F923F924F9212
:101270005F926F927F928F929F92AF92BF92CF9226
:10128000DF92EF92FF920F931F93CF93DF93CDB72F
:10129000DEB7A2970FB6F894DEBF0FBECDBF0097A2
:1012A00009F453C36115710509F452C38B016C0134
:1012B000DC011696ED90FC901797FF24B8E0EB1632
:1012C000F10409F460C07CF4F2E0EF16F10409F4D3
:1012D00046C024E0E216F104E9F031E0E316F1043F
:1012E00009F039C32BC080E2E816F10409F458C1B3
:1012F00034F4A0E1EA16F10409F44BC12CC3B0E4C4
:10130000EB16F10409F4DFC1E0E8EE16F10409F48C
:1013100020C121C365E070E0C8010E94D206009799
:1013200009F41CC325E0E8E5F3E0DC0101900D922F
:101330002A95E1F7EE24E394F12C36C366E070E0E1
:10134000C8010E94D206009709F40BC326E0EDE520
:10135000F3E0DC0101900D922A95E1F725C365E0E9
:1013600070E0C8010E94D206009709F4FDC225E092
:10137000E3E6F3E0DC0101900D922A95E1F7EE241B
:10138000E394F12C11C3DC011C96CD90DD90ED901F
:10139000FC901F97FE0131968AE1DF011D928A952C
:1013A000E9F71B8E1C8E1D8E1E8EA7019601C701AC
:1013B000B6010E94E60F81110CC0A7019601C7017A
:1013C000B6010E94790F9B01AC010E94E60F8823B1
:1013D000A9F085E0E8E5F3E0DE01119601900D92B9
:1013E0008A95E1F765E070E0C8010E94D2066C01C1
:1013F000892B09F4A5C064E070E07EC0FF92EF92F3
:10140000DF92CF9288E693E09F938F93FE0131960F
:101410005F01FF93EF930E9454191C01CE014B967C
:101420009F938F938FE693E09F938F93BF92AF929A
:101430000E9476190FB6F894DEBF0FBECDBF01979C
:10144000A9F58B8C9C8CAD8CBE8C24013501E89465
:1014500077F8D701C601BF778F8F98A3A9A3BAA346
:101460009C01AD01C301B2010E944511181624F080
:101470004F8C58A069A07AA0A7019601C501B401BC
:101480000E94790F4B015C01E894B7F820E030E04E
:1014900040E054E3C301B2010E944A119B01AC0138
:1014A000C501B4010E94E60F1816A4F4FF92EF9252
:1014B000DF92CF9283E793E09F938F93CE010196C3
:1014C0009F938F930E9454191C010FB6F894DEBFAE
:1014D0000FBECDBF7101BAE12B163104A0F5B101E9
:1014E0006F5F7F4FC8010E94D2066C01892B71F19A
:1014F00021143104A1F0B101FE013196D6019F0102
:10150000260F371F4EE291919E3211F44C9301C089
:101510009C9311962E173F07B1F77B0102C060E044
:1015200070E0F601E60FF71F1082F80184819581C3
:10153000E80EF91EF582E482EE24E394F12C34C225
:10154000E12CF12C31C2E12CF12C2EC2E12CF12C3A
:101550002BC2F601A085B185109709F408C2FD01E0
:1015600001900020E9F77F01EA1AFB0AB701C801E0
:101570000E94D206009709F4FDC1D60118966D911C
:101580007C911997A7010E948B18EE24E394F12C0B
:101590000BC2F601808591850E946F077C0104C211
:1015A000D6011496CD90DC90159761E070E0C801EB
:1015B0000E94D206009709F4E0C12BE5FC012083CC
:1015C000D80114968D919C911597019615969C9330
:1015D0008E93149716968D919C9117970196179656
:1015E0009C938E931697C114D10409F452C0689449
:1015F000772471F8812C99249394A12C0F2EFCE26E
:10160000BF2EF02D6894662465F8B801C6010E94CB
:1016100035097C01892B09F4C7C1C8010E948606DF
:10162000F60180819181892BA1F1D8011A968D91C3
:101630009C911B97892B19F4E92CFA2C02C0E72CFA
:10164000F82CB7016F5F7F4FC8010E94D206009748
:1016500009F496C1FC01B082D8011A962D913C91F3
:101660001B97232B11F4319605C0FC013296DC0147
:1016700011966C921082F801848195818E0D9F1DC8
:1016800095838483D601CD90DC90C114D10409F0F8
:10169000BCCF62E070E0C8010E94D206009709F456
:1016A00072C12DE5FC0120831182D80116968D911F
:1016B0009C911797019717969C938E931697EE24FB
:1016C000E394F12C71C1F601C480D580DB011A9638
:1016D0008D919C911B97892B21F4EE24E394F12C9E
:1016E00004C06894EE24E1F8F12CB7016F5F7F4FDE
:1016F000C8010E94D206009709F448C12BE7FC01FB
:101700002083D80116962D913C9117972F5F3F4F5C
:1017100017963C932E9316971A962D913C911B97F2
:10172000232B11F02AE02183F80184819581E80EB2
:10173000F91EF582E482C114D10409F4C6C00F2E4B
:10174000F9E0BF2EF02D6894332431F8212C992430
:101750009394A12C0F2EFAE38F2EF02D512C412CB7
:101760000F2EFCE27F2EF02D0F2EFAE06F2EF02DC3
:10177000D8011A968D919C911B97892B29F1169669
:101780006D917C911797C8010E94D206009709F4C9
:1017900000C1F801468157814115510571F0FC01E6
:1017A00020E030E0B1922F5F3F4FD80116964D9167
:1017B0005C91179724173507A8F3F8018481958168
:1017C000480F591F55834483B801D60150968D9117
:1017D0009C9151970E946F077C01892B09F4E4C00A
:1017E000C8010E948606F80182859385892B19F429
:1017F000E92CFA2C02C0E32CF22CB701C8010E949C
:10180000D206009709F4C8C0DC018C92F801228549
:101810003385232B11F01196BC92D80114968D912B
:101820009C911597E80EF91E1596FC92EE9214976E
:10183000B801C6010E9435097C01892B09F4B4C0A6
:10184000C8010E948606E92CFA2CF601808191815C
:10185000892B11F4E52CF42C892D9A2DD8011A9698
:101860002D913C911B97232B11F4852D942DE80E7F
:10187000F91EB7016F5F7F4FC8010E94D206009723
:1018800009F48DC0F60120813181232B29F0FC0160
:101890003196DC017C9201C0FC01D8011A968D9131
:1018A0009C911B97892B11F0608231961082F80170
:1018B00084819581E80EF91EF582E482D601CD90EF
:1018C000DC90C114D10409F053CFF80182859385CF
:1018D000892B29F0668177816F5F7F4F02C062E0BC
:1018E00070E0C8010E94D206009709F45BC0D801DD
:1018F0001A962D913C911B97232BC1F016962D9192
:101900003C9117972130310589F040E050E069E0C3
:101910000196FC01319760834F5F5F4FF80126818C
:101920003781215031094217530790F32DE7DC012D
:101930002C9311961C92F8018681978101979783C9
:101940008683EE24E394F12C2FC0E12CF12C2CC0E3
:10195000E12CF12C29C0E12CF12C26C0E12CF12C3A
:1019600023C0E12CF12C20C0E12CF12C1DC0E12C76
:10197000F12C1AC0E12CF12C17C0E12CF12C14C071
:10198000E12CF12C11C0E12CF12C0EC0E12CF12C3A
:101990000BC0E12CF12C08C0E12CF12C05C0E12C8E
:1019A000F12C02C0E12CF12CC701A2960FB6F894DD
:1019B000DEBF0FBECDBFDF91CF911F910F91FF9082
:1019C000EF90DF90CF90BF90AF909F908F907F90DF
:1019D0006F905F904F903F902F900895EF92FF92FD
:1019E0000F931F93CF93DF93EC01892BC9F10F2E37
:1019F000F6E0EF2EF1E0FF2EF02D088119818E81A7
:101A00009F8190FD14C08C819D81009731F00E94D0
:101A1000EE0C8E819F8190FD0AC088859985009784
:101A200031F0D7011296ED91FC91139709958E81B3
:101A30009F8191FD0AC088899989009731F0D7016B
:101A40001296ED91FC9113970995D7011296ED919D
:101A5000FC911397CE010995C02FD12F209769F6DD
:101A6000DF91CF911F910F91FF90EF9008950F9309
:101A70001F93CF93DF93CDB7DEB762970FB6F8947D
:101A8000DEBF0FBECDBF8E010F5F1F4FA2E1F80179
:101A90001192AA95E9F75523D4F061157105D1F09B
:101AA0007A8369835C834B8341E050E05A8749879E
:101AB0003C872B8726E0E6E0F1E0DE011D960190F1
:101AC0000D922A95E1F7B8010E94350905C080E022
:101AD00090E002C080E090E062960FB6F894DEBF1E
:101AE0000FBECDBFDF91CF911F910F910895CF927F
:101AF000DF92EF92FF92CF93DF936B017C0186E040
:101B000091E00E946107EC01892B61F188E090E08F
:101B10009F838E83CC86DD86EE86FF8620E03EEFB7
:101B20004FEF56E4C701B6010E94451188232CF0FF
:101B30008FEF9FE79B878A8715C020E030E040E069
:101B400057ECC701B6010E94E60F18162CF080E092
:101B500090E89B878A8706C0C701B6010E945D1086
:101B60007B876A87CE01DF91CF91FF90EF90DF9066
:101B7000CF900895CF92DF92EF92FF920F931F9331
:101B8000CF93DF937C016B01CA01B9010E94770DED
:101B9000D82FC92F00E010E026E031E0482F592F60
:101BA000B601C7010E94D908892B39F48D2F9C2FCB
:101BB0000E94EE0C80E090E002C08D2F9C2FDF9100
:101BC000CF911F910F91FF90EF90DF90CF900895EC
:101BD00086E091E00E946107009729F020E430E060
:101BE000FC01378326830895CF92DF92EF92FF9214
:101BF0000F931F93CF93DF937C016B010E94E80D3D
:101C0000D82FC92F00E010E026E031E0482F592FEF
:101C1000B601C7010E94D908892B39F48D2F9C2F5A
:101C20000E94EE0C80E090E002C08D2F9C2FDF918F
:101C3000CF911F910F91FF90EF90DF90CF9008957B
:101C40000E94E5000E94DA000E94680F60E875E2D9
:101C500080E090E00E9441060E94580178940E9422
:101C6000EF038823E1F30E94E7000E94380F0E94EF
:101C7000E7000E9438050E9453050E94C7010E9498
:101C80009901F9CF0E94470F80E00E944D0F81E03B
:101C90000E94530F0895EF92FF921F93CF93DF930B
:101CA000E82E80E00E94590FC7E0D0E010E0F12C50
:101CB00097010C2E02C0359527950A94E2F720FF74
:101CC00004C081E00E945F0F03C080E00E945F0FAC
:101CD00081E00E94590F110F0E94650F8111116060
:101CE00080E00E94590F219718F7812FDF91CF9143
:101CF0001F91FF90EF9008950F931F93CF93DF9361
:101D0000662371F0EC016150062F10E00F5F1F4F4A
:101D1000080F191F89910E944B0EC017D107D1F7E8
:101D2000DF91CF911F910F910895CF93DF93C82F2B
:101D3000D62F80E00E94530F8C2F8F7180620E94FB
:101D40004B0E8D2F0E944B0E81E00E94530FDF91AE
:101D5000CF91089580E00E94530F82EE0E944B0EB7
:101D600081E00E94530F60E787E00E94950E80E0BB
:101D70000E944D0F6BE080E00E94950E81E00E9472
:101D80004D0F089560939005682F85E00E94950E91
:101D900060E081E10E94950E6091900582E10E94D1
:101DA000950E60E083E10E94950E60E084E10E9460
:101DB000950E60E085E10E94950E60E086E10E944C
:101DC000950E66E086E00E94950E68E080E00E9435
:101DD000950E63E081E00E94950E63E082E00E9430
:101DE000950E6FE484E00E94950E60E08CE10E9405
:101DF000950E0E94AA0E08950F931F93CF93DF9321
:101E0000C82F8B01D42F80E00E94530F8C2F8F712D
:101E100080620E944B0E6D2FC8010E947C0E81E0F3
:101E20000E94530FDF91CF911F910F910895CF938F
:101E3000DF93EC0180E00E944D0F45E0BE018BE096
:101E40000E94FC0E81E00E944D0FDF91CF9108951A
:101E5000CF93DF93EC0145E0BC018AE00E94FC0EC9
:101E600045E0BE0180E10E94FC0EDF91CF91089514
:101E70000E94420E62E082E00E94C20E81E191E087
:101E80000E94280F8CE091E00E94170F0895219A7C
:101E9000229A259A239A24980895882311F0299A42
:101EA000089529980895882311F02A9A08952A9868
:101EB0000895882311F02D9A08952D980895882368
:101EC00011F02B9A08952B98089583B1807108958D
:101ED0003B9A3A9A10928F0410928E040895809142
:101EE0008E0490918F04019711F4439A08954398BA
:101EF00008955058BB27AA270E94910F0C940B11EC
:101F00000E94FD1038F00E94041120F039F49F3F28
:101F100019F426F40C94FA100EF4E095E7FB0C94F7
:101F2000F410E92F0E941C1158F3BA1762077307C7
:101F30008407950720F079F4A6F50C943E110EF471
:101F4000E0950B2EBA2FA02D0B01B90190010C01C9
:101F5000CA01A0011124FF27591B99F0593F50F4E1
:101F6000503E68F11A16F040A22F232F342F442739
:101F7000585FF3CF469537952795A795F040539531
:101F8000C9F77EF41F16BA0B620B730B840BBAF001
:101F90009150A1F0FF0FBB1F661F771F881FC2F76C
:101FA0000EC0BA0F621F731F841F48F48795779580
:101FB0006795B795F7959E3F08F0B0CF9395880F3A
:101FC00008F09927EE0F9795879508950E94D010F5
:101FD00008F481E008950E94FF0F0C940B110E94F9
:101FE000041158F00E94FD1040F029F45F3F29F0E1
:101FF0000C94F41051110C943F110C94FA100E949F
:102000001C1168F39923B1F3552391F3951B550BDC
:10201000BB27AA2762177307840738F09F5F5F4FBB
:10202000220F331F441FAA1FA9F335D00E2E3AF0FA
:10203000E0E832D091505040E695001CCAF72BD012
:10204000FE2F29D0660F771F881FBB1F2617370763
:102050004807AB07B0E809F0BB0B802DBF01FF2795
:1020600093585F4F3AF09E3F510578F00C94F4106E
:102070000C943F115F3FE4F3983ED4F38695779537
:102080006795B795F7959F5FC9F7880F911D96954E
:10209000879597F90895E1E0660F771F881FBB1FAA
:1020A000621773078407BA0720F0621B730B840B57
:1020B000BA0BEE1F88F7E09508950E9464106894AB
:1020C000B1110C943F1108950E94241188F09F577C
:1020D00098F0B92F9927B751B0F0E1F0660F771F4C
:1020E000881F991F1AF0BA95C9F714C0B13091F042
:1020F0000E943E11B1E008950C943E11672F782F95
:102100008827B85F39F0B93FCCF386957795679506
:10211000B395D9F73EF490958095709561957F4F72
:102120008F4F9F4F0895E89409C097FB3EF4909518
:102130008095709561957F4F8F4F9F4F9923A9F0A0
:10214000F92F96E9BB279395F6958795779567952F
:10215000B795F111F8CFFAF4BB0F11F460FF1BC073
:102160006F5F7F4F8F4F9F4F16C0882311F096E906
:1021700011C0772321F09EE8872F762F05C06623B4
:1021800071F096E8862F70E060E02AF09A95660F6D
:10219000771F881FDAF7880F9695879597F9089526
:1021A000990F0008550FAA0BE0E8FEEF1616170668
:1021B000E807F907C0F012161306E407F50798F0D0
:1021C000621B730B840B950B39F40A2661F0232BE9
:1021D000242B252B21F408950A2609F4A140A69565
:1021E0008FEF811D811D089597F99F6780E870E04A
:1021F00060E008959FEF80EC089500240A9416167D
:10220000170618060906089500240A9412161306E4
:10221000140605060895092E0394000C11F4882372
:1022200052F0BB0F40F4BF2B11F460FF04C06F5F8E
:102230007F4F8F4F9F4F089557FD9058440F551F64
:1022400059F05F3F71F04795880F97FB991F61F038
:102250009F3F79F087950895121613061406551FAF
:10226000F2CF4695F1DF08C0161617061806991F1B
:10227000F1CF86957105610508940895E894BB2710
:1022800066277727CB0197F908950E94D01008F4AC
:102290008FEF08950E945D110C940B110E94FD10A8
:1022A00038F00E94041120F0952311F00C94F410E2
:1022B0000C94FA1011240C943F110E941C1170F31D
:1022C000959FC1F3950F50E0551F629FF001729FDB
:1022D000BB27F00DB11D639FAA27F00DB11DAA1FEA
:1022E000649F6627B00DA11D661F829F2227B00D37
:1022F000A11D621F739FB00DA11D621F839FA00DC2
:10230000611D221F749F3327A00D611D231F849F11
:10231000600D211D822F762F6A2F11249F57504068
:102320009AF0F1F088234AF0EE0FFF1FBB1F661FE3
:10233000771F881F91505040A9F79E3F510580F0AC
:102340000C94F4100C943F115F3FE4F3983ED4F3E7
:10235000869577956795B795F795E7959F5FC1F750
:10236000FE2B880F911D9695879597F908950E94E9
:102370002411E8F09E37E8F09639B8F49E3848F416
:10238000672F782F8827985FF9CF8695779567957F
:1023900093959539D0F3B62FB1706B0F711D811DD8
:1023A00020F487957795679593950C94DB110C94A1
:1023B000F6110C943F11882371F4772321F0985083
:1023C000872B762F07C0662311F499270DC09051F3
:1023D000862B70E060E02AF09A95660F771F881FC1
:1023E000DAF7880F9695879597F908959F3F31F012
:1023F000915020F4879577956795B795880F911D33
:102400009695879597F90895A0E1B0E0EAE0F2E1AA
:102410000C9481157C011B016A01FC011782168254
:10242000838181FF44C39E012F5F3F4F3901F70134
:102430009381F10193FD859193FF81911F01882381
:1024400009F431C3853239F493FD859193FF81916D
:102450001F01853239F4B70190E00E94E818560157
:102460006501E5CF10E0512C912CFFE1F915D8F072
:102470008B3279F038F4803279F08332A1F4F92D7F
:10248000F0612EC08D3261F0803369F4292D216016
:102490002DC0392D3260932E892D8460982E2AC04C
:1024A000E92DE86015C097FC2DC020ED280F2A30DB
:1024B00088F496FE06C03AE0139F200D1124122FD7
:1024C00019C08AE0589E200D1124522EE92DE06299
:1024D0009E2E10C08E3231F496FCE5C2F92DF064C8
:1024E0009F2E08C08C3621F4292D2068922E02C020
:1024F000883641F4F10193FD859193FF81911F018D
:102500008111B3CF9BEB980F933020F4992D9061FC
:10251000805E07C09BE9980F933008F066C1992D43
:102520009F7E96FF16E09F73992E853619F490646E
:10253000992E08C0863621F4392F3068932E02C0B8
:102540001111115097FE07C01C3350F444244394DA
:10255000410E27E00BC0183038F027E017E005C027
:1025600027E09CE3492E02C0212F412C560184E034
:10257000A80EB11CF6016081718182819381042DC6
:10258000A3010E949F176C01F981FC87F0FF02C034
:10259000F3FF06C091FC06C092FE06C000E205C033
:1025A0000DE203C00BE201C000E08C858C7019F0D5
:1025B00001115AC29BC297FE10C04C0CFC85F4FF5F
:1025C00004C08A81813309F44A94141474F528E014
:1025D000241578F588E0482E2CC096FC2AC0812F5F
:1025E00090E08C159D059CF03CEFC3163FEFD306A1
:1025F00074F0892D8068982E0AC0E2E0F0E0EC0FBC
:10260000FD1FE10FF11D8081803319F4115011116C
:10261000F4CF97FE0EC044244394410E812F90E0E6
:10262000C816D9062CF41C1904C04424439401C0D4
:1026300010E097FE06C01C141D0434F4C601019678
:1026400005C085E090E002C081E090E001110196B4
:10265000112331F0212F30E02F5F3F4F820F931F66
:10266000252D30E08217930714F4581A01C0512C1D
:10267000892D897049F4552039F0B70180E290E046
:102680000E94E8185A94F7CF002329F0B701802F51
:1026900090E00E94E81893FC09C0552039F0B7017A
:1026A00080E390E00E94E8185A94F7CF97FE4CC060
:1026B0004601D7FE02C0812C912CC60188199909C8
:1026C000F301E80FF91FFE87ED8796012419310900
:1026D000388B2F87012F10E01195019511093FEFDD
:1026E0008316930629F4B7018EE290E00E94E81861
:1026F000C814D9044CF08F8598898815990524F45D
:10270000ED85FE85818101C080E3F1E08F1A91089B
:102710002D853E852F5F3F4F3E872D878016910682
:102720002CF0B70190E00E94E818D9CFC814D90462
:1027300041F49A81963320F4953319F43C8534FFA3
:1027400081E3B70190E04EC08A81813319F09C8506
:102750009F7E9C87B70190E00E94E818111105C088
:1027600094FC18C085E690E017C0B7018EE290E0B7
:102770000E94E8181E5F82E001E0080FF301E80FF5
:10278000F11D8081B70190E00E94E818802F0113AD
:10279000F3CFE6CF85E490E0B7010E94E818D7FCBC
:1027A00006C0C114D10441F4EC85E4FF05C0D19406
:1027B000C194D1088DE201C08BE2B70190E00E9484
:1027C000E81880E32AE0C216D1042CF08F5FFAE00B
:1027D000CF1AD108F7CFB70190E00E94E818B701EF
:1027E000C601C0960E94E81854C1833631F0833781
:1027F00079F0833509F056C020C0560132E0A30EAF
:10280000B11CF6018081898301E010E0630112C0F0
:102810005601F2E0AF0EB11CF601C080D18096FEE9
:1028200003C0612F70E002C06FEF7FEFC6010E940E
:10283000C3188C01F92DFF7714C0560122E0A20EB7
:10284000B11CF601C080D18096FE03C0612F70E0FC
:1028500002C06FEF7FEFC6010E9480188C01F92D36
:10286000F0689F2EF3FD1AC0852D90E00817190718
:10287000A8F4B70180E290E00E94E8185A94F4CFDF
:10288000F60197FC859197FE81916F01B70190E069
:102890000E94E81851105A940150110901151105B0
:1028A00079F7F7C0843611F0893661F5560197FE45
:1028B00009C024E0A20EB11CF60160817181828101
:1028C00093810AC0F2E0AF0EB11CF6016081718104
:1028D000072E000C880B990BF92DFF769F2E97FF82
:1028E00009C090958095709561957F4F8F4F9F4F50
:1028F000F0689F2E2AE030E0A3010E948F19C82EB5
:10290000C6183FC0092D853721F40F7E2AE030E03C
:102910001DC0097F8F3691F018F4883559F0C3C077
:10292000803719F0883711F0BEC0006104FF09C07C
:10293000046007C094FE08C0066006C028E030E0CE
:1029400005C020E130E002C020E132E0560107FF7F
:1029500009C084E0A80EB11CF601608171818281FA
:10296000938108C0F2E0AF0EB11CF6016081718165
:1029700080E090E0A3010E948F19C82EC6180F773F
:10298000902E96FE0BC0092D0E7FC11650F494FEBA
:102990000AC092FC08C0092D0E7E05C0DC2C092D52
:1029A00003C0DC2C01C0D12E04FF0DC0FE01EC0DD4
:1029B000F11D8081803311F4097E09C002FF06C039
:1029C000D394D39404C0802F867809F0D39403FD68
:1029D00011C000FF06C01C2DD51480F4150D1D1963
:1029E0000DC0D51458F4B70180E290E00E94E818B9
:1029F000D394F7CFD51410F45D1801C0512C04FF07
:102A000010C0B70180E390E00E94E81802FF17C0F1
:102A100001FD03C088E790E002C088E590E0B701BF
:102A20000CC0802F867859F001FF02C08BE201C0F4
:102A300080E207FD8DE2B70190E00E94E818C11620
:102A400038F4B70180E390E00E94E8181150F7CF06
:102A5000CA94F301EC0DF11D8081B70190E00E9452
:102A6000E818C110F5CF15C0F4E0F51560F584E065
:102A7000581A93FE1FC0011127C02C8523FF2AC0BE
:102A800008E610E0392D3071932EF8018491811100
:102A900024C0552009F4E4CCB70180E290E00E9404
:102AA000E8185A94F6CFF7018681978126C08FEFF8
:102AB0009FEF23C0B70180E290E00E94E8185A948B
:102AC0005110F8CFD8CF512CB701802F90E00E9441
:102AD000E818D3CF0CE610E0D5CF91108052B701A3
:102AE00090E00E94E8180F5F1F4FCFCF23E025151D
:102AF00010F483E0BDCF512CC0CF6096E2E10C947E
:102B00009D152F923F924F925F926F927F928F927C
:102B10009F92AF92BF92CF92DF92EF92FF920F936C
:102B20001F93CF93DF93CDB7DEB7CA1BDB0B0FB676
:102B3000F894DEBF0FBECDBF09942A883988488833
:102B40005F846E847D848C849B84AA84B984C884C9
:102B5000DF80EE80FD800C811B81AA81B981CE0FC0
:102B6000D11D0FB6F894DEBF0FBECDBFED010895A5
:102B70000F931F93CF93DF938230910510F482E07F
:102B800090E0E0919305F091940520E030E0A0E022
:102B9000B0E0309719F140815181028113814817CB
:102BA0005907C8F08417950769F4109731F0129609
:102BB0000C93129713961C9327C0009393051093C0
:102BC000940522C02115310519F04217530718F456
:102BD0009A01BD01EF01DF01F801DBCF21153105BD
:102BE000F9F0281B390B2430310580F48A819B8150
:102BF0006115710521F0FB019383828304C09093DA
:102C0000940580939305FE01329644C0FE01E20FC5
:102C1000F31F8193919322503109398328833AC05D
:102C20002091910530919205232B41F420910201CE
:102C3000309103013093920520939105209100017A
:102C4000309101012115310541F42DB73EB7409176
:102C5000040150910501241B350BE0919105F09181
:102C60009205E217F307A0F42E1B3F0B2817390734
:102C700078F0AC014E5F5F4F2417350748F04E0FD8
:102C80005F1F50939205409391058193919302C0E9
:102C9000E0E0F0E0CF01DF91CF911F910F91089517
:102CA000CF93DF93009709F481C0FC013297138220
:102CB0001282A0919305B0919405109781F4208120
:102CC0003181820F931F2091910530919205281731
:102CD000390751F5F0939205E093910567C0ED0136
:102CE00020E030E0CE17DF0740F44A815B819E018F
:102CF00041155105F1F0EA01F5CFD383C28340813C
:102D00005181840F951FC817D90759F4888199817B
:102D1000840F951F0296918380838A819B81938380
:102D200082832115310529F4F0939405E0939305EE
:102D30003DC0E901FB83EA8349915991C40FD51F36
:102D4000EC17FD0761F480819181840F951F029635
:102D5000E90199838883828193819B838A83E0E060
:102D6000F0E012968D919C911397009719F0FD0158
:102D7000DC01F7CF8D919C9111979D012E5F3F4F04
:102D8000820F931F209191053091920528173907E2
:102D900069F4309729F4109294051092930502C0BB
:102DA00013821282B0939205A0939105DF91CF9187
:102DB0000895A0E0B0E0EFEDF6E10C948515EC018C
:102DC000009721F4CB010E94B815B4C0FC01E60FB6
:102DD000F71F9C0122503109E217F30708F4A8C03D
:102DE000D9010D911C91119706171707B0F0053006
:102DF000110508F49BC0C80104978617970708F4CB
:102E000095C002501109061B170B019311936D9386
:102E10007C93CF010E94501689C05B01A01AB10AB1
:102E20004C01800E911EA0919305B0919405612CE8
:102E3000712CE12CF12C109709F446C08D919C91D6
:102E40001197A815B905B1F56C0142E0C40ED11C6B
:102E5000CA14DB0478F14C018A189B08640142E033
:102E6000C40ED11C1296BC9012971396AC91B5E08B
:102E7000CB16D10440F0B282A38391828082D90123
:102E80006D937C9309C00E5F1F4F800F911FF90156
:102E900091838083EB2DFA2FE114F10431F0D701F7
:102EA0001396FC93EE93129741C0F0939405E09330
:102EB00093053CC06816790608F43C017D01129622
:102EC0000D90BC91A02DB7CF809191059091920566
:102ED00088169906E1F466167706C8F48091000119
:102EE00090910101009741F48DB79EB74091040184
:102EF00050910501841B950BE817F907C8F4F0936E
:102F00009205E0939105F901718360830FC0CB01B5
:102F10000E94B8157C01009759F0A801BE010E94DB
:102F20008B18CE010E945016C70104C0CE0102C00A
:102F300080E090E0CDB7DEB7EEE00C94A11528302C
:102F400008F027E03327DA01990F311D87FD9160E2
:102F500000966105710539F432602E5F3D9330E3D0
:102F60002A95E1F708959F3F30F08038710561059B
:102F700009F03C5F3C5F3D93913008F08068911D03
:102F8000DF93CF931F930F93FF92EF92192F987FA8
:102F90009695E92F96959695E90FFF27E653FF4FF3
:102FA00099273327EE24FF24A701E7010590089411
:102FB000079428F4360FE71EF81E491F511D660FAF
:102FC000771F881F991F0694A1F70590079428F48E
:102FD000E70EF81E491F561FC11D770F881F991F46
:102FE000661F0694A1F70590079428F4F80E491F70
:102FF000561FC71FD11D880F991F661F771F069484
:10300000A1F70590079420F4490F561FC71FD81F3A
:10301000990F661F771F881F0694A9F78491109552
:10302000177041F0D695C79557954795F794E79453
:103030001A95C1F7E0E7F0E0689415901591359185
:103040006591959105907FE27395E118F10A430B24
:10305000560BC90BD009C0F7E10CF11E431F561FD8
:10306000C91FD01D7EF4703311F48A95E6CFE89421
:10307000015030F0080F0AF40027021708F4202F3F
:103080002395022F7A3328F079E37D932A95E9F787
:1030900010C07D932A9589F6069497956795379584
:1030A00017951794E118F10A430B560BC90BD00979
:1030B00098F023957E9173957A3308F070E37C93B2
:1030C0002013B8F77E9170617D9330F0839571E3A2
:1030D0007D9370E32A95E1F71124EF90FF900F9113
:1030E0001F91CF91DF91992787FD909508959111B8
:1030F0000C949A1C803219F089508550C8F70895B5
:10310000FC010590615070400110D8F780959095B2
:103110008E0F9F1F0895FB01DC0102C001900D92EC
:1031200041505040D8F708956817790768F4FB01BB
:10313000DC01E40FF51FA40FB51F02C002900E9230
:1031400041505040D8F708950C948B18FB01DC01D6
:103150004150504030F08D910190801919F40020B9
:10316000B9F7881B990B0895FB01DC0141505040D1
:1031700048F001900D920020C9F701C01D92415006
:103180005040E0F70895FC0161507040019001103B
:10319000D8F7809590958E0F9F1F0895FB01519150
:1031A0005523A9F0BF01DC014D9145174111E1F70D
:1031B00059F4CD010190002049F04D914015411185
:1031C000C9F3FB014111EFCF81E090E00197089531
:1031D0000F931F93CF93DF93FB01238121FD03C046
:1031E0008FEF9FEF2CC022FF16C0468157812481AC
:1031F00035814217530744F4A081B1819D012F5FAF
:103200003F4F318320838C93268137812F5F3F4F3F
:103210003783268314C08B01EC01FB010084F18508
:10322000E02D0995892BE1F6D80116968D919C9198
:103230001797019617969C938E931697CE01DF9160
:10324000CF911F910F910895AEE0B0E0EAE2F9E16D
:103250000C948F150D891E898F89988D26E02C83FB
:103260001A83098397FF02C080E090E801979E834C
:103270008D83AE01455E5F4F698D7A8DCE010196DB
:103280000E9404124D815E8157FD0AC02F8138854E
:10329000421753070CF49A01F801E20FF31F108252
:1032A0002E96E4E00C94AB15AEE0B0E0EAE5F9E16F
:1032B0000C948F150D891E8986E08C831A830983EF
:1032C0008FEF9FE79E838D83AE01475E5F4F6F89CF
:1032D000788DCE0101960E940412EF81F885E00FEF
:1032E000F11F10822E96E4E00C94AB15AEE0B0E036
:1032F000ECE7F9E10C94911585E08C838B899C892E
:103300009A838983AE01495E5F4F6D897E89CE01C4
:1033100001960E94891B2E96E2E00C94AD15FA01ED
:10332000AA27283051F1203181F1E8946F936E7F04
:103330006E5F7F4F8F4F9F4FAF4FB1E03ED0B4E0F5
:103340003CD0670F781F891F9A1FA11D680F791F36
:103350008A1F911DA11D6A0F711D811D911DA11D47
:1033600020D009F468943F912AE0269F1124301957
:10337000305D3193DEF6CF010895462F4770405DF2
:103380004193B3E00FD0C9F7F6CF462F4F70405DA1
:103390004A3318F0495D31FD4052419302D0A9F7FC
:1033A000EACFB4E0A6959795879577956795BA95F6
:1033B000C9F700976105710508959B01AC010A2EBC
:1033C00006945795479537952795BA95C9F7620F93
:1033D000731F841F951FA01D089520FD09C0FC01C7
:1033E00023FD05C022FF02C07383628351834083A3
:1033F000089544FD17C046FD17C0AB01BC01DA01BA
:10340000FB01AA0FBB1FEE1FFF1F1094D1F74A0F3D
:103410005B1F6E1F7F1FCB01BA01660F771F881FCE
:10342000991F09C033E001C034E0660F771F881F81
:10343000991F3150D1F7620F711D811D911D0895A3
:103440000F931F93CF93DF938C01C8010E94A81C98
:10345000EC0197FD08C00E947718892BB1F7B801DD
:10346000CE010E94E61CCE01DF91CF911F910F91FA
:1034700008958F929F92AF92BF92EF92FF920F9317
:103480001F93CF93DF938C01D62F7A01B22E0E9427
:10349000A81C9C0133272B32310531F02D32310528
:1034A00061F48B2D8068B82ED15011F480E068C093
:1034B000C8010E94A81C97FDF9CFCB2DCD7F2B2DE5
:1034C000207309F58033F9F4AA24AA94AD0E09F407
:1034D00043C0C8010E94A81C97FD3EC09C012F7DDF
:1034E00033272835310549F4C264D250A9F1C80107
:1034F0000E94A81C97FF07C02FC0B6FE02C0C26082
:1035000001C0C261DA2D812C912C540120ED280FCD
:10351000283080F0C4FF04C0B8010E94E61C19C026
:103520002A3040F0C6FFF8CF2F7D3FEE320F363005
:1035300098F727504C2FC501B4010E94F9194B018F
:103540005C01C260D15059F0C8010E94A81C97FFCD
:10355000DDCFC1FD04C0AACF812C912C5401C7FF3F
:1035600008C0B094A09490948094811C911CA11CDC
:10357000B11C2C2FB501A401C7010E94ED1981E0F7
:10358000DF91CF911F910F91FF90EF90BF90AF907F
:103590009F908F900895A0E2B0E0E1EDFAE10C94E5
:1035A00084155C01962E7A01F9018E010F5F1F4F81
:1035B000680180E2D8011D928A95E9F7D50113963A
:1035C0008C9080E090E0612C712C30E061E070E044
:1035D00083FC259183FE21918F01522E211103C07E
:1035E00080E090E092C02E3511F4009751F1432F06
:1035F00050E0481759073CF42D3559F12D3219F494
:10360000772009F103C0772009F46AC0452D46955B
:1036100046954695D601A40FB11D452D47708B01E7
:1036200002C0000F111F4A95E2F7A8015C91452BDB
:103630004C93651459F0561410F45394E7CF5A94F0
:10364000E5CF31E004C07724739401C0712C01965A
:10365000BFCF772019F08E8180628E83311103C035
:103660008824839417C0F6019E012F5D3F4F80810F
:10367000809581932E173F07D1F7F2CFE114F10423
:1036800029F0D7018C93F70131967F019A94812C10
:103690009920F9F0C5010E94A81C97FD18C0FC01F3
:1036A000FF2723E0F595E7952A95E1F7EC0DFD1D41
:1036B000208130E0AC014770552702C03595279531
:1036C0004A95E2F720FDDACFB5010E94E61C811091
:1036D00087CFE114F10411F0D7011C92C80115C085
:1036E000422F469546954695D601A40FB11D422F0F
:1036F00047708B0102C0000F111F4A95E2F7A80125
:103700005C91452B4C93622EA2CFA096EFE00C94D7
:10371000A015A0E0B0E0EFE8FBE10C9484156C018B
:10372000EB015A01FC0117821682512CF601E3804D
:10373000FE01E3FC8591E3FE8191182FEF018823C0
:1037400009F4EEC090E00E947718892B21F0C601A1
:103750000E94201AEBCF153241F4FE01E3FC1591D3
:10376000E3FE1191EF01153281F4C6010E94A81CFD
:1037700097FDD4C0412F50E09C0133272417350713
:10378000A9F2B6010E94E61CCBC01A3239F4E3FC60
:103790001591E3FE1191EF0101E001C000E0F12C71
:1037A00020ED210F2A3080F402606F2D70E080E060
:1037B00090E040E20E94F919F62EFE01E3FC15911B
:1037C000E3FE1191EF01ECCF01FF03C0F11003C044
:1037D000A7C0FF24FA94183619F01C3651F010C017
:1037E000FE01E3FC1591E3FE1191EF01183641F45F
:1037F00008600460FE01E3FC1591E3FE1191EF0106
:10380000112309F48DC0612F70E08AE691E00E94D7
:103810009D1C892B09F484C000FD07C0F501808040
:103820009180C50102965C0102C0812C912C1E364C
:1038300051F4F6014681578160E070E0202FC40109
:103840000E94ED1973CF1336A9F401FD02C0FF24C5
:10385000F394C6010E94A81C97FD60C081149104D6
:1038600029F0F4018083C40101964C01FA94F1100F
:10387000F0CF50C01B3559F49E01A4016F2DC60135
:103880000E94CB1AEC01892B09F044C03EC0C6014E
:103890000E94201A97FD42C01F3661F128F41436A9
:1038A00039F1193651F128C0133771F0153701F18C
:1038B00023C08114910429F0F4016082C4010196AF
:1038C0004C01FA94FF2071F0C6010E94A81C3C0133
:1038D00097FD08C00E947718892B59F3B601C301E0
:1038E0000E94E61C81149104A9F0F401108212C018
:1038F000006203C0006101C00064202FA4016F2D8D
:10390000C6010E94391A811105C0F60183818073B6
:1039100029F406C000FD0ACF539408CF552019F0B2
:10392000852D90E002C08FEF9FEFCDB7DEB7EFE0BF
:103930000C94A015992788270895FC010590061678
:1039400021F00020D9F7C00108953197CF010895E3
:10395000CF93DF93EC012B8120FF33C026FF0AC0F9
:103960002F7B2B838E819F8101969F838E838A81FB
:1039700090E029C022FF0FC0E881F9818081082EE4
:10398000000C990B009719F420622B831AC0319612
:10399000F983E8830EC0EA85FB85099597FF09C086
:1039A0002B81019611F080E201C080E1822B8B8394
:1039B00008C02E813F812F5F3F4F3F832E83992781
:1039C00002C08FEF9FEFDF91CF910895FB0123811C
:1039D00020FF12C026FD10C08F3F3FEF930761F01C
:1039E00082832F7D206423832681378121503109F2
:1039F00037832683992708958FEF9FEF0895F894D2
:023A0000FFCFF6
:103A0200000095052000B8155016D916D7D7D7D77C
:103A1200D7E7E7E7E7E7556E6974202564006D6F25
:103A22006973747572650074656D70657261747521
:103A320072650032334544384D384F4F4C42325450
:103A42004B483000474554202F617070732F7468C3
:103A5200696E67687474702F73656E645F726571E6
:103A6200756573743F6170695F6B65793D25732677
:103A72006D6573736167653D25730046443637385B
:103A820039584E344F52443838474600474554203F
:103A92002F617070732F7468696E67687474702F09
:103AA20073656E645F726571756573743F61706989
:103AB2005F6B65793D2573002B4950442C004345CB
:103AC200304B455854414A37475652554430000D01
:103AD2000A4F4B0D0A0041542B4349504D4F444568
:103AE2003D25640041542B4349504D55583D2564B2
:103AF20000415445300041540041542B4349504346
:103B02004C4F53453D310041542B43574D4F444593
:103B12003D25640041542B43574A41503D222573B1
:103B2200222C22257322000D0A5749464920434F71
:103B32004E4E45435445440D0A002B43574A4150CB
:103B42003A31002B43574A41503A32002B43574AED
:103B520041503A33002B43574A41503A34004154C2
:103B62002B434950535441545553005354415455D7
:103B7200533A32005354415455533A33005354414B
:103B82005455533A34005354415455533A35004333
:103B920049504D55583A300041542B4349504D55E8
:103BA200583F0041542B43495053544152543D22F3
:103BB200544350222C222573222C25730041542B6E
:103BC20043495053544152543D222564222C2254DD
:103BD2004350222C222573222C257300434F4E4E34
:103BE2004543540D0A0039383731333839333839BF
:103BF20035004A616E697468204469616C6F6720A0
:103C02003447003830006170692E7468696E6773DA
:103C12007065616B2E636F6D0041542B43495053A5
:103C2200454E443D2564000D0A4F4B0D0A3E000DE2
:103C32000A53454E44204F4B0D0A0041542B434931
:103C4200505345525645523D222573222C2225734C
:103C520022007525303478006E756C6C0066616CDC
:103C6200736500747275650025312E313567002544
:103C72006C670025312E3137670025692E25692EA4
:083C8200256900EFBBBF000043
:00000001FF
