:100000000C942A000C9447000C9447000C94470071
:100010000C9447000C9447000C9447000C94470044
:100020000C9447000C9447000C9447000C94490032
:100030000C9447000C9447000C9447000C94470024
:100040000C9447000C9447000C9447000C94470014
:100050000C94470011241FBECFE5D4E0DEBFCDBF16
:1000600011E0A0E6B0E0E4E4F6E002C005900D92F5
:10007000A03AB107D9F722E0A0EAB1E001C01D9291
:10008000A534B207E1F70E9480000C9420030C9481
:1000900000001F920F920FB60F9211242F938F938F
:1000A0009F93EF93FF932FB7F894E091A201F09103
:1000B000A3018CB1EC55FE4F80838091A2019091F9
:1000C000A30101969093A3018093A2018091A201C4
:1000D0009091A301803A910541F41092A3011092EE
:1000E000A2011092A1011092A0012FBFFF91EF91E8
:1000F0009F918F912F910F900FBE0F901F90189589
:1001000060E072EC81E090E00E948C00789489E9D4
:1001100091E00E94B400FBCF599A2AB128692AB90C
:1001200020B5266820BD0E94D80120E030E040E0E4
:1001300051E40E9466029B01AC0160E074E284E736
:1001400099E40E94300120E030E040E85FE30E9443
:10015000C3000E94D3020E94A20169B970BD089534
:100160008CB95D9BFECF0895CF93DF93EC0188811E
:10017000882331F021960E94B00089918111FBCF34
:10018000DF91CF9108955058BB27AA270E94DB002A
:100190000C942C020E941E0238F00E94250220F0CE
:1001A00039F49F3F19F426F40C941B020EF4E095E9
:1001B000E7FB0C941502E92F0E943D0258F3BA1791
:1001C000620773078407950720F079F4A6F50C946D
:1001D0005F020EF4E0950B2EBA2FA02D0B01B90192
:1001E00090010C01CA01A0011124FF27591B99F0AD
:1001F000593F50F4503E68F11A16F040A22F232FB9
:10020000342F4427585FF3CF469537952795A79508
:10021000F0405395C9F77EF41F16BA0B620B730BAF
:10022000840BBAF09150A1F0FF0FBB1F661F771F20
:10023000881FC2F70EC0BA0F621F731F841F48F4D5
:10024000879577956795B795F7959E3F08F0B0CF5E
:100250009395880F08F09927EE0F97958795089545
:100260000E9444010C942C020E94250258F00E9426
:100270001E0240F029F45F3F29F00C941502511141
:100280000C9460020C941B020E943D0268F39923B7
:10029000B1F3552391F3951B550BBB27AA27621782
:1002A0007307840738F09F5F5F4F220F331F441F8F
:1002B000AA1FA9F335D00E2E3AF0E0E832D09150C3
:1002C0005040E695001CCAF72BD0FE2F29D0660FB0
:1002D000771F881FBB1F261737074807AB07B0E8F3
:1002E00009F0BB0B802DBF01FF2793585F4F3AF0F9
:1002F0009E3F510578F00C9415020C9460025F3F0C
:10030000E4F3983ED4F3869577956795B795F7957E
:100310009F5FC9F7880F911D9695879597F9089566
:10032000E1E0660F771F881FBB1F62177307840702
:10033000BA0720F0621B730B840BBA0BEE1F88F711
:10034000E09508950E94A9016894B1110C9460028F
:1003500008950E94450288F09F5798F0B92F992779
:10036000B751B0F0E1F0660F771F881F991F1AF0A0
:10037000BA95C9F714C0B13091F00E945F02B1E0A4
:1003800008950C945F02672F782F8827B85F39F0A3
:10039000B93FCCF3869577956795B395D9F73EF439
:1003A00090958095709561957F4F8F4F9F4F0895E1
:1003B000E89409C097FB3EF49095809570956195FF
:1003C0007F4F8F4F9F4F9923A9F0F92F96E9BB27B5
:1003D0009395F695879577956795B795F111F8CF31
:1003E000FAF4BB0F11F460FF1BC06F5F7F4F8F4F9C
:1003F0009F4F16C0882311F096E911C0772321F092
:100400009EE8872F762F05C0662371F096E8862F29
:1004100070E060E02AF09A95660F771F881FDAF780
:10042000880F9695879597F9089597F99F6780E8C3
:1004300070E060E008959FEF80EC089500240A9436
:100440001616170618060906089500240A941216AF
:100450001306140605060895092E0394000C11F4E2
:10046000882352F0BB0F40F4BF2B11F460FF04C08F
:100470006F5F7F4F8F4F9F4F089557FD9058440FE8
:10048000551F59F05F3F71F04795880F97FB991FF3
:1004900061F09F3F79F087950895121613061406B0
:1004A000551FF2CF4695F1DF08C01616170618063D
:1004B000991FF1CF86957105610508940895E89418
:1004C000BB2766277727CB0197F908950E94790209
:1004D0000C942C020E941E0238F00E94250220F08B
:1004E000952311F00C9415020C941B0211240C940A
:1004F00060020E943D0270F3959FC1F3950F50E09A
:10050000551F629FF001729FBB27F00DB11D639FC5
:10051000AA27F00DB11DAA1F649F6627B00DA11D6B
:10052000661F829F2227B00DA11D621F739FB00D11
:10053000A11D621F839FA00D611D221F749F332781
:10054000A00D611D231F849F600D211D822F762F1A
:100550006A2F11249F5750409AF0F1F088234AF0F7
:10056000EE0FFF1FBB1F661F771F881F9150504063
:10057000A9F79E3F510580F00C9415020C9460027F
:100580005F3FE4F3983ED4F3869577956795B795EA
:10059000F795E7959F5FC1F7FE2B880F911D969504
:1005A000879597F908950E944502E8F09E37E8F094
:1005B0009639B8F49E3848F4672F782F8827985FCB
:1005C000F9CF86957795679593959539D0F3B62FA2
:1005D000B1706B0F711D811D20F48795779567951C
:1005E00093950C94F7020C9412030C9460028823E8
:1005F00071F4772321F09850872B762F07C066235C
:1006000011F499270DC09051862B70E060E02AF01C
:100610009A95660F771F881FDAF7880F969587954A
:1006200097F908959F3F31F0915020F48795779581
:100630006795B795880F911D9695879597F90895B9
:04064000F894FFCF5C
:100644000D0A4F4B0D0A0041542B4349504D4F4462
:10065400453D25640041542B4349504D55583D2593
:100664006400415445300041540041542B434950E7
:10067400434C4F53453D310041542B43574D4F4458
:10068400453D25640041542B43574A41503D2225A2
:1006940073222C22257322000D0A57494649204310
:1006A4004F4E4E45435445440D0A002B43574A418F
:1006B400503A31002B43574A41503A32002B4357AA
:1006C4004A41503A33002B43574A41503A3400418F
:1006D400542B43495053544154555300535441549B
:1006E40055533A32005354415455533A33005354FA
:1006F400415455533A34005354415455533A3500F8
:100704004349504D55583A300041542B4349504DBC
:1007140055583F0041542B43495053544152543D82
:1007240022544350222C222573222C257300415439
:100734002B43495053544152543D222564222C22C8
:10074400544350222C222573222C257300434F4EF0
:100754004E4543540D0A0041542B43495053454ED2
:10076400443D2564000D0A4F4B0D0A3E000D0A530B
:10077400454E44204F4B0D0A00426567696E0A00DE
:00000001FF
