:100000000C9434000C9446000C9446000C9446006A
:100010000C9446000C9446000C9446000C94460048
:100020000C9446000C9446000C9446000C94460038
:100030000C9446000C9446000C9446000C94460028
:100040000C9446000C9446000C9446000C94460018
:100050000C9446000C9446000C9446000C94460008
:100060000C9446000C94460011241FBECFEFD8E03C
:10007000DEBFCDBF21E0A0E0B1E001C01D92A03005
:10008000B207E1F70E9448000C9481000C94000034
:100090000E946E008FEF8AB987E00E9455008E3073
:1000A00011F4589AF9CF599AF7CF93E09A95F1F74E
:1000B00000002A9893E09A95F1F700008F710E9452
:1000C0007A0083E08A95F1F700008FEF0E947A00B2
:1000D00093E09A95F1F700002A9A089584B1866A10
:1000E00084B9269881E58CBD8DB58E7F8DBD2A9A09
:1000F000299808958EBD0DB407FEFDCF8EB58EB53F
:060100000895F894FFCF02
:00000001FF
