:100000000C9434000C9451000C9451000C94510049
:100010000C9451000C9451000C9451000C9451001C
:100020000C9451000C9451000C9451000C9451000C
:100030000C9451000C9451000C9451000C945100FC
:100040000C9451000C9451000C9451000C945100EC
:100050000C9451000C9451000C9451000C945100DC
:100060000C9451000C94510011241FBECFEFD8E026
:10007000DEBFCDBF11E0A0E0B1E0ECE9FAE002C0E4
:1000800005900D92A231B107D9F721E0A2E1B1E0CC
:1000900001C01D92A531B207E1F70E94AF000C9498
:1000A0004C050C940000ECE7F0E0808180648083D4
:1000B000EAE7F0E08081876880830895ECE7F0E06C
:1000C0009081907F8F70892B8083EAE7F0E08081B8
:1000D00080648083808186FDFDCF8091780090913F
:1000E00079000895539A08950F931F93CF93DF9348
:1000F000CDB7DEB72A970FB6F894DEBF0FBECDBFDF
:100100000E94E4010E94F9018E010F5F1F4F8AE0F7
:10011000F80111928A95E9F7809112011F928F934D
:10012000809113011F928F938AE091E09F938F93A8
:100130001F930F930E946202C8010E942B020FB608
:10014000F894DEBF0FBECDBF2A960FB6F894DEBF7F
:100150000FBECDBFDF91CF911F910F9108950E94E7
:10016000B4010E9472000E9453000E94740087EA4A
:1001700091E60197F1F700C00000F7CF0E94C3019C
:1001800080E00E94C90181E00E94CF010895EF92B2
:10019000FF921F93CF93DF93E82E80E00E94D5015A
:1001A000C7E0D0E010E0F12C97010C2E02C035958D
:1001B00027950A94E2F720FF04C081E00E94DB014A
:1001C00003C080E00E94DB0181E00E94D501110F95
:1001D0000E94E1018111116080E00E94D501219708
:1001E00018F7812FDF91CF911F91FF90EF90089525
:1001F0000F931F93CF93DF93662371F0EC0161504F
:10020000062F10E00F5F1F4F080F191F89910E94E2
:10021000C700C017D107D1F7DF91CF911F910F9180
:100220000895CF93DF93C82FD62F80E00E94CF018F
:100230008C2F8F7180620E94C7008D2F0E94C70093
:1002400081E00E94CF01DF91CF91089580E00E946C
:10025000CF0182EE0E94C70081E00E94CF0160E7DB
:1002600087E00E94110180E00E94C9016BE080E0FC
:100270000E94110181E00E94C90108956093140158
:10028000682F85E00E94110160E081E10E94110168
:100290006091140182E10E94110160E083E10E94FB
:1002A000110160E084E10E94110160E085E10E949B
:1002B000110160E086E10E94110166E086E00E9483
:1002C000110168E080E00E94110163E081E00E947A
:1002D000110163E082E00E9411016FE484E00E945A
:1002E000110160E08CE10E9411010E942601089535
:1002F0000F931F93CF93DF93C82F8B01D42F80E0F0
:100300000E94CF018C2F8F7180620E94C7006D2FD9
:10031000C8010E94F80081E00E94CF01DF91CF91D7
:100320001F910F910895CF93DF93EC0180E00E941D
:10033000C90145E0BE018BE00E94780181E00E9486
:10034000C901DF91CF910895CF93DF93EC0145E090
:10035000BC018AE00E94780145E0BE0180E10E9474
:100360007801DF91CF9108950E94BE0062E082E0A3
:100370000E943E0185E091E00E94A40180E091E0AE
:100380000E9493010895219A229A259A239A2498EB
:100390000895882311F0299A0895299808958823AB
:1003A00011F02A9A08952A980895882311F02D9A19
:1003B00008952D980895882311F02B9A08952B986D
:1003C000089583B18071089585E00E945E009C01CC
:1003D000215031092F3F334058F49C01992314F4E4
:1003E0002D5F3F4F35952795359527952093130120
:1003F0000895EF92FF920F931F93CF93C0E000E018
:1004000010E0E12CF12C8C2F0E945E009C01215009
:1004100031092F3F334020F4E80EF91E0F5F1F4FC4
:10042000CF5FC53081F7B801660F771F660F771F62
:10043000C7010E943A0260931201CF911F910F9160
:10044000FF90EF9008958093C600E0ECF0E080818B
:1004500085FFFDCF0895CF93DF93EC01888188233A
:1004600031F021960E94230289918111FBCFDF9107
:10047000CF91089597FB072E16F4009407D077FDCF
:1004800009D00E944E0207FC05D03EF4909581955C
:100490009F4F0895709561957F4F0895AA1BBB1BD0
:1004A00051E107C0AA1FBB1FA617B70710F0A61B74
:1004B000B70B881F991F5A95A9F780959095BC0195
:1004C000CD010895AEE0B0E0E8E6F2E00C9423053B
:1004D0000D891E8986E08C831A8309838FEF9FE73D
:1004E0009E838D83AE01475E5F4F6F89788DCE010D
:1004F00001960E948402EF81F885E00FF11F1082BF
:100500002E96E4E00C943F05ABE0B0E0EAE8F2E0C0
:100510000C9415056C017B018A01FC01178216827F
:10052000838181FFCCC1CE0101963C01F60193810C
:10053000F70193FD859193FF81917F01882309F451
:10054000BAC1853239F493FD859193FF81917F0182
:10055000853229F4B60190E00E947B04E7CF912C0C
:10056000212C312CFFE1F315D8F08B3279F038F4DF
:10057000803279F08332A1F4232D20611DC08D32A9
:1005800061F0803369F4232D216016C0832D8260D1
:10059000382EE32DE4603E2E2AC0F32DF8601DC0F6
:1005A00037FC2DC020ED280F2A3040F08E32B9F4F0
:1005B00036FC81C1232D2064322E19C036FE06C0C0
:1005C0008AE0989E200D1124922E11C0EAE02E9E02
:1005D000200D1124222EF32DF0623F2E08C08C3600
:1005E00021F4832D8068382E02C0883641F4F7014B
:1005F00093FD859193FF81917F018111B3CF982F56
:100600009F7D9554933028F40C5F1F4F9FE399838F
:100610000DC0833631F0833771F0833509F059C04E
:1006200021C0F801808189830E5F1F4F8824839445
:10063000912C530113C02801F2E04F0E511CF80118
:10064000A080B18036FE03C0692D70E002C06FEF5C
:100650007FEFC5010E9470044C018201F32DFF77EA
:100660003F2E16C0280122E0420E511CF801A08046
:10067000B18036FE03C0692D70E002C06FEF7FEFDE
:10068000C5010E9465044C01F32DF0683F2E8201E4
:1006900033FC1BC0822D90E088169906B0F4B60199
:1006A00080E290E00E947B042A94F4CFF50137FCAD
:1006B000859137FE81915F01B60190E00E947B0435
:1006C00021102A9421E0821A91088114910471F773
:1006D000E8C0843611F0893641F5F80137FE07C0CD
:1006E00060817181828193810C5F1F4F08C060819E
:1006F0007181072E000C880B990B0E5F1F4FF32D95
:10070000FF763F2E97FF09C0909580957095619573
:100710007F4F8F4F9F4FF0683F2E2AE030E0A301BC
:100720000E94B704882E861845C0853731F4232DE2
:100730002F7EB22E2AE030E025C0932D997FB92E6E
:100740008F36C1F018F4883579F0B5C0803719F0CC
:10075000883721F0B0C0E92FE061BE2EB4FE0DC095
:10076000FB2DF460BF2E09C034FE0AC0292F26607D
:10077000B22E06C028E030E005C020E130E002C023
:1007800020E132E0F801B7FE07C06081718182810B
:1007900093810C5F1F4F06C06081718180E090E003
:1007A0000E5F1F4FA3010E94B704882E8618FB2DF1
:1007B000FF773F2E36FE0DC0232D2E7FA22E8914EB
:1007C00058F434FE0BC032FC09C0832D8E7EA82E57
:1007D00005C0B82CA32C03C0B82C01C0B92CA4FEB2
:1007E0000FC0FE01E80DF11D8081803321F49A2DA8
:1007F000997EA92E09C0A2FE06C0B394B39404C08A
:100800008A2D867809F0B394A3FC11C0A0FE06C01F
:10081000B21488F4280C922C9B180EC0B21460F409
:10082000B60180E290E00E947B04B394F7CFB2144B
:1008300018F42B1802C0982C212CA4FE10C0B6016D
:1008400080E390E00E947B04A2FE17C0A1FC03C0DD
:1008500088E790E002C088E590E0B6010CC08A2DE0
:10086000867859F0A1FE02C08BE201C080E2A7FCAD
:100870008DE2B60190E00E947B04891438F4B60141
:1008800080E390E00E947B049A94F7CF8A94F3016E
:10089000E80DF11D8081B60190E00E947B0481107B
:1008A000F5CF222009F442CEB60180E290E00E940A
:1008B0007B042A94F6CFF6018681978102C08FEFE0
:1008C0009FEF2B96E2E10C943105FC0105906150FD
:1008D00070400110D8F7809590958E0F9F1F089556
:1008E000FC016150704001900110D8F780959095FF
:1008F0008E0F9F1F08950F931F93CF93DF93FB01DC
:10090000238121FD03C08FEF9FEF2CC022FF16C073
:1009100046815781248135814217530744F4A081D1
:10092000B1819D012F5F3F4F318320838C932681BE
:1009300037812F5F3F4F3783268314C08B01EC0133
:10094000FB010084F185E02D0995892BE1F6D801A2
:1009500016968D919C911797019617969C938E935E
:100960001697CE01DF91CF911F910F910895FA0153
:10097000AA27283051F1203181F1E8946F936E7FDE
:100980006E5F7F4F8F4F9F4FAF4FB1E03ED0B4E0CF
:100990003CD0670F781F891F9A1FA11D680F791F10
:1009A0008A1F911DA11D6A0F711D811D911DA11D21
:1009B00020D009F468943F912AE0269F1124301931
:1009C000305D3193DEF6CF010895462F4770405DCC
:1009D0004193B3E00FD0C9F7F6CF462F4F70405D7B
:1009E0004A3318F0495D31FD4052419302D0A9F7D6
:1009F000EACFB4E0A6959795879577956795BA95D0
:100A0000C9F700976105710508959B01AC010A2E95
:100A100006945795479537952795BA95C9F7620F6C
:100A2000731F841F951FA01D08952F923F924F9210
:100A30005F926F927F928F929F92AF92BF92CF926E
:100A4000DF92EF92FF920F931F93CF93DF93CDB777
:100A5000DEB7CA1BDB0B0FB6F894DEBF0FBECDBFEF
:100A600009942A88398848885F846E847D848C84C0
:100A70009B84AA84B984C884DF80EE80FD800C81C9
:100A80001B81AA81B981CE0FD11D0FB6F894DEBFAC
:0C0A90000FBECDBFED010895F894FFCF1C
:100A9C00D7D7D7D7D7E7E7E7E7E725642025642042
:020AAC000A003E
:00000001FF
