:100000000C9434000C9446000C9446000C9446006A
:100010000C9446000C9446000C9446000C94460048
:100020000C9446000C9446000C9446000C94460038
:100030000C9446000C9446000C9446000C94460028
:100040000C9446000C9446000C9446000C94460018
:100050000C9446000C9446000C9446000C94460008
:100060000C9446000C94460011241FBECFEFD8E03C
:10007000DEBFCDBF21E0A0E0B1E001C01D92A43001
:10008000B207E1F70E9463000C94DA000C940000C0
:10009000ECE7F0E09081907F8F70892B8083EAE716
:1000A000F0E0808180648083808186FDFDCF809137
:1000B0007800909179000895579A08950E947C00E5
:1000C0000E948A0008950E9470000E945C000E94B5
:1000D0005E0087EA91E60197F1F700C00000F7CFD4
:1000E00084B1866A84B9269881E58CBD8DB58E7FF2
:1000F0008DBD2A9A2998089585E00E9448009C01A8
:10010000215031092F3F334020F490930301809315
:1001100002010895EF92FF920F931F93CF93C0E0D7
:1001200000E010E0E12CF12C8C2F0E9448009C0193
:10013000215031092F3F334020F4E80EF91E0F5FA4
:100140001F4FCF5FC53081F7C701B8010E94B200D1
:100150007093010160930001CF911F910F91FF9067
:10016000EF90089597FB072E16F4009407D077FDC3
:1001700009D00E94C60007FC05D03EF490958195F9
:100180009F4F0895709561957F4F0895AA1BBB1BE3
:1001900051E107C0AA1FBB1FA617B70710F0A61B87
:1001A000B70B881F991F5A95A9F780959095BC01A8
:0801B000CD010895F894FFCF82
:00000001FF
